{"contracts/Survey.sol":{"SurveyContract":{"abi":[{"anonymous":false,"inputs":[{"indexed":true,"internalType":"address","name":"member","type":"address"},{"indexed":false,"internalType":"uint256","name":"joinedAt","type":"uint256"}],"name":"MemberJoined","type":"event"},{"anonymous":false,"inputs":[{"indexed":true,"internalType":"address","name":"owner","type":"address"},{"indexed":true,"internalType":"uint256","name":"surveyId","type":"uint256"},{"indexed":false,"internalType":"uint256","name":"createdAt","type":"uint256"},{"indexed":false,"internalType":"uint256","name":"endTime","type":"uint256"}],"name":"SurveyCreated","type":"event"},{"anonymous":false,"inputs":[{"indexed":true,"internalType":"address","name":"voted","type":"address"},{"indexed":true,"internalType":"uint256","name":"surveyId","type":"uint256"},{"indexed":true,"internalType":"uint256","name":"option","type":"uint256"},{"indexed":false,"internalType":"uint256","name":"votedAt","type":"uint256"}],"name":"Voted","type":"event"},{"inputs":[{"internalType":"string","name":"uri","type":"string"},{"internalType":"uint256","name":"endTime","type":"uint256"},{"internalType":"uint256","name":"options","type":"uint256"}],"name":"createSurvey","outputs":[],"stateMutability":"nonpayable","type":"function"},{"inputs":[{"internalType":"address","name":"member","type":"address"},{"internalType":"uint256","name":"surveyId","type":"uint256"}],"name":"didVote","outputs":[{"internalType":"bool","name":"","type":"bool"}],"stateMutability":"view","type":"function"},{"inputs":[{"internalType":"uint256","name":"surveyId","type":"uint256"}],"name":"getVote","outputs":[{"internalType":"string","name":"","type":"string"},{"internalType":"address","name":"","type":"address"},{"internalType":"uint256[]","name":"","type":"uint256[]"},{"internalType":"uint256","name":"","type":"uint256"}],"stateMutability":"view","type":"function"},{"inputs":[],"name":"join","outputs":[],"stateMutability":"nonpayable","type":"function"},{"inputs":[{"internalType":"address","name":"","type":"address"}],"name":"members","outputs":[{"internalType":"bool","name":"","type":"bool"}],"stateMutability":"view","type":"function"},{"inputs":[{"internalType":"uint256","name":"surveyId","type":"uint256"},{"internalType":"uint256","name":"option","type":"uint256"}],"name":"vote","outputs":[],"stateMutability":"nonpayable","type":"function"}],"evm":{"bytecode":{"linkReferences":{},"object":"608060405234801561001057600080fd5b50611756806100206000396000f3fe608060405234801561001057600080fd5b50600436106100625760003560e01c806308ae4b0c146100675780635a55c1f014610097578063b384abef146100ca578063b688a363146100e6578063bda088d4146100f0578063d6b41d8c14610120575b600080fd5b610081600480360381019061007c9190610b29565b61013c565b60405161008e9190610b71565b60405180910390f35b6100b160048036038101906100ac9190610bc2565b61015c565b6040516100c19493929190610d5b565b60405180910390f35b6100e460048036038101906100df9190610dae565b6102cb565b005b6100ee6105f8565b005b61010a60048036038101906101059190610dee565b61072d565b6040516101179190610b71565b60405180910390f35b61013a60048036038101906101359190610f63565b610798565b005b60026020528060005260406000206000915054906101000a900460ff1681565b6060600060606000600160008681526020019081526020016000206000016001600087815260200190815260200160002060010160009054906101000a900473ffffffffffffffffffffffffffffffffffffffff166001600088815260200190815260200160002060030160016000898152602001908152602001600020600201548380546101ea90611001565b80601f016020809104026020016040519081016040528092919081815260200182805461021690611001565b80156102635780601f1061023857610100808354040283529160200191610263565b820191906000526020600020905b81548152906001019060200180831161024657829003601f168201915b50505050509350818054806020026020016040519081016040528092919081815260200182805480156102b557602002820191906000526020600020905b8154815260200190600101908083116102a1575b5050505050915093509350935093509193509193565b600260003373ffffffffffffffffffffffffffffffffffffffff1673ffffffffffffffffffffffffffffffffffffffff16815260200190815260200160002060009054906101000a900460ff16610357576040517f08c379a000000000000000000000000000000000000000000000000000000000815260040161034e9061107e565b60405180910390fd5b8181600054821061039d576040517f08c379a0000000000000000000000000000000000000000000000000000000008152600401610394906110ea565b60405180910390fd5b600160008381526020019081526020016000206005015481106103f5576040517f08c379a00000000000000000000000000000000000000000000000000000000081526004016103ec90611156565b60405180910390fd5b6001600083815260200190815260200160002060040160003373ffffffffffffffffffffffffffffffffffffffff1673ffffffffffffffffffffffffffffffffffffffff16815260200190815260200160002060009054906101000a900460ff1615610496576040517f08c379a000000000000000000000000000000000000000000000000000000000815260040161048d906111c2565b60405180910390fd5b60016000838152602001908152602001600020600201544211156104ef576040517f08c379a00000000000000000000000000000000000000000000000000000000081526004016104e69061122e565b60405180910390fd5b6001600085815260200190815260200160002060030183815481106105175761051661124e565b5b906000526020600020016000815480929190610532906112ac565b9190505550600180600086815260200190815260200160002060040160003373ffffffffffffffffffffffffffffffffffffffff1673ffffffffffffffffffffffffffffffffffffffff16815260200190815260200160002060006101000a81548160ff02191690831515021790555082843373ffffffffffffffffffffffffffffffffffffffff167fc32b42768a47a585121e9b8d7a2ab9d3f34c326a192dee11ee1732e3d18313f3426040516105ea91906112f4565b60405180910390a450505050565b600260003373ffffffffffffffffffffffffffffffffffffffff1673ffffffffffffffffffffffffffffffffffffffff16815260200190815260200160002060009054906101000a900460ff1615610685576040517f08c379a000000000000000000000000000000000000000000000000000000000815260040161067c9061135b565b60405180910390fd5b6001600260003373ffffffffffffffffffffffffffffffffffffffff1673ffffffffffffffffffffffffffffffffffffffff16815260200190815260200160002060006101000a81548160ff0219169083151502179055503373ffffffffffffffffffffffffffffffffffffffff167f7f3b9effe05cfb4f31f854004de03199fd03fe56bf38a48b2aa9a9f4402d6e234260405161072391906112f4565b60405180910390a2565b60006001600083815260200190815260200160002060040160008473ffffffffffffffffffffffffffffffffffffffff1673ffffffffffffffffffffffffffffffffffffffff16815260200190815260200160002060009054906101000a900460ff16905092915050565b600260003373ffffffffffffffffffffffffffffffffffffffff1673ffffffffffffffffffffffffffffffffffffffff16815260200190815260200160002060009054906101000a900460ff16610824576040517f08c379a000000000000000000000000000000000000000000000000000000000815260040161081b9061107e565b60405180910390fd5b60028110158015610836575060088111155b610875576040517f08c379a000000000000000000000000000000000000000000000000000000000815260040161086c906113ed565b60405180910390fd5b4282116108b7576040517f08c379a00000000000000000000000000000000000000000000000000000000081526004016108ae90611459565b60405180910390fd5b6000805490506000808154809291906108cf906112ac565b9190505550836001600083815260200190815260200160002060000190816108f79190611625565b50826001600083815260200190815260200160002060020181905550816001600083815260200190815260200160002060050181905550336001600083815260200190815260200160002060010160006101000a81548173ffffffffffffffffffffffffffffffffffffffff021916908373ffffffffffffffffffffffffffffffffffffffff1602179055508167ffffffffffffffff81111561099d5761099c610e38565b5b6040519080825280602002602001820160405280156109cb5781602001602082028036833780820191505090505b506001600083815260200190815260200160002060030190805190602001906109f5929190610a4d565b50803373ffffffffffffffffffffffffffffffffffffffff167f7dbdc74dfa202714f01ba5d9f06fafebc553262226547369c54db89d113d36674286604051610a3f9291906116f7565b60405180910390a350505050565b828054828255906000526020600020908101928215610a89579160200282015b82811115610a88578251825591602001919060010190610a6d565b5b509050610a969190610a9a565b5090565b5b80821115610ab3576000816000905550600101610a9b565b5090565b6000604051905090565b600080fd5b600080fd5b600073ffffffffffffffffffffffffffffffffffffffff82169050919050565b6000610af682610acb565b9050919050565b610b0681610aeb565b8114610b1157600080fd5b50565b600081359050610b2381610afd565b92915050565b600060208284031215610b3f57610b3e610ac1565b5b6000610b4d84828501610b14565b91505092915050565b60008115159050919050565b610b6b81610b56565b82525050565b6000602082019050610b866000830184610b62565b92915050565b6000819050919050565b610b9f81610b8c565b8114610baa57600080fd5b50565b600081359050610bbc81610b96565b92915050565b600060208284031215610bd857610bd7610ac1565b5b6000610be684828501610bad565b91505092915050565b600081519050919050565b600082825260208201905092915050565b60005b83811015610c29578082015181840152602081019050610c0e565b60008484015250505050565b6000601f19601f8301169050919050565b6000610c5182610bef565b610c5b8185610bfa565b9350610c6b818560208601610c0b565b610c7481610c35565b840191505092915050565b610c8881610aeb565b82525050565b600081519050919050565b600082825260208201905092915050565b6000819050602082019050919050565b610cc381610b8c565b82525050565b6000610cd58383610cba565b60208301905092915050565b6000602082019050919050565b6000610cf982610c8e565b610d038185610c99565b9350610d0e83610caa565b8060005b83811015610d3f578151610d268882610cc9565b9750610d3183610ce1565b925050600181019050610d12565b5085935050505092915050565b610d5581610b8c565b82525050565b60006080820190508181036000830152610d758187610c46565b9050610d846020830186610c7f565b8181036040830152610d968185610cee565b9050610da56060830184610d4c565b95945050505050565b60008060408385031215610dc557610dc4610ac1565b5b6000610dd385828601610bad565b9250506020610de485828601610bad565b9150509250929050565b60008060408385031215610e0557610e04610ac1565b5b6000610e1385828601610b14565b9250506020610e2485828601610bad565b9150509250929050565b600080fd5b600080fd5b7f4e487b7100000000000000000000000000000000000000000000000000000000600052604160045260246000fd5b610e7082610c35565b810181811067ffffffffffffffff82111715610e8f57610e8e610e38565b5b80604052505050565b6000610ea2610ab7565b9050610eae8282610e67565b919050565b600067ffffffffffffffff821115610ece57610ecd610e38565b5b610ed782610c35565b9050602081019050919050565b82818337600083830152505050565b6000610f06610f0184610eb3565b610e98565b905082815260208101848484011115610f2257610f21610e33565b5b610f2d848285610ee4565b509392505050565b600082601f830112610f4a57610f49610e2e565b5b8135610f5a848260208601610ef3565b91505092915050565b600080600060608486031215610f7c57610f7b610ac1565b5b600084013567ffffffffffffffff811115610f9a57610f99610ac6565b5b610fa686828701610f35565b9350506020610fb786828701610bad565b9250506040610fc886828701610bad565b9150509250925092565b7f4e487b7100000000000000000000000000000000000000000000000000000000600052602260045260246000fd5b6000600282049050600182168061101957607f821691505b60208210810361102c5761102b610fd2565b5b50919050565b7f796f7520617265206e6f742061206d656d626572000000000000000000000000600082015250565b6000611068601483610bfa565b915061107382611032565b602082019050919050565b600060208201905081810360008301526110978161105b565b9050919050565b7f73757276657920646f6573206e6f742065786973740000000000000000000000600082015250565b60006110d4601583610bfa565b91506110df8261109e565b602082019050919050565b60006020820190508181036000830152611103816110c7565b9050919050565b7f696e76616c6964206f7074696f6e000000000000000000000000000000000000600082015250565b6000611140600e83610bfa565b915061114b8261110a565b602082019050919050565b6000602082019050818103600083015261116f81611133565b9050919050565b7f796f75206861766520616c726561647920766f74656400000000000000000000600082015250565b60006111ac601683610bfa565b91506111b782611176565b602082019050919050565b600060208201905081810360008301526111db8161119f565b9050919050565b7f7375727665792068617320656e64656400000000000000000000000000000000600082015250565b6000611218601083610bfa565b9150611223826111e2565b602082019050919050565b600060208201905081810360008301526112478161120b565b9050919050565b7f4e487b7100000000000000000000000000000000000000000000000000000000600052603260045260246000fd5b7f4e487b7100000000000000000000000000000000000000000000000000000000600052601160045260246000fd5b60006112b782610b8c565b91507fffffffffffffffffffffffffffffffffffffffffffffffffffffffffffffffff82036112e9576112e861127d565b5b600182019050919050565b60006020820190506113096000830184610d4c565b92915050565b7f796f752061726520616c72656164792061206d656d6265720000000000000000600082015250565b6000611345601883610bfa565b91506113508261130f565b602082019050919050565b6000602082019050818103600083015261137481611338565b9050919050565b7f6e756d626572206f66206f7074696f6e73206d7573742062652062657477656560008201527f6e203220616e6420380000000000000000000000000000000000000000000000602082015250565b60006113d7602983610bfa565b91506113e28261137b565b604082019050919050565b60006020820190508181036000830152611406816113ca565b9050919050565b7f656e642074696d652063616e6e6f7420626520696e2070617374000000000000600082015250565b6000611443601a83610bfa565b915061144e8261140d565b602082019050919050565b6000602082019050818103600083015261147281611436565b9050919050565b60008190508160005260206000209050919050565b60006020601f8301049050919050565b600082821b905092915050565b6000600883026114db7fffffffffffffffffffffffffffffffffffffffffffffffffffffffffffffffff8261149e565b6114e5868361149e565b95508019841693508086168417925050509392505050565b6000819050919050565b600061152261151d61151884610b8c565b6114fd565b610b8c565b9050919050565b6000819050919050565b61153c83611507565b61155061154882611529565b8484546114ab565b825550505050565b600090565b611565611558565b611570818484611533565b505050565b5b818110156115945761158960008261155d565b600181019050611576565b5050565b601f8211156115d9576115aa81611479565b6115b38461148e565b810160208510156115c2578190505b6115d66115ce8561148e565b830182611575565b50505b505050565b600082821c905092915050565b60006115fc600019846008026115de565b1980831691505092915050565b600061161583836115eb565b9150826002028217905092915050565b61162e82610bef565b67ffffffffffffffff81111561164757611646610e38565b5b6116518254611001565b61165c828285611598565b600060209050601f83116001811461168f576000841561167d578287015190505b6116878582611609565b8655506116ef565b601f19841661169d86611479565b60005b828110156116c5578489015182556001820191506020850194506020810190506116a0565b868310156116e257848901516116de601f8916826115eb565b8355505b6001600288020188555050505b505050505050565b600060408201905061170c6000830185610d4c565b6117196020830184610d4c565b939250505056fea26469706673582212204a9bd5aed9e3166082d3e46f708e9177445bf2625b6ce63dc774cedefe9d863e64736f6c63430008130033","opcodes":"PUSH1 0x80 PUSH1 0x40 MSTORE CALLVALUE DUP1 ISZERO PUSH2 0x10 JUMPI PUSH1 0x0 DUP1 REVERT JUMPDEST POP PUSH2 0x1756 DUP1 PUSH2 0x20 PUSH1 0x0 CODECOPY PUSH1 0x0 RETURN INVALID PUSH1 0x80 PUSH1 0x40 MSTORE CALLVALUE DUP1 ISZERO PUSH2 0x10 JUMPI PUSH1 0x0 DUP1 REVERT JUMPDEST POP PUSH1 0x4 CALLDATASIZE LT PUSH2 0x62 JUMPI PUSH1 0x0 CALLDATALOAD PUSH1 0xE0 SHR DUP1 PUSH4 0x8AE4B0C EQ PUSH2 0x67 JUMPI DUP1 PUSH4 0x5A55C1F0 EQ PUSH2 0x97 JUMPI DUP1 PUSH4 0xB384ABEF EQ PUSH2 0xCA JUMPI DUP1 PUSH4 0xB688A363 EQ PUSH2 0xE6 JUMPI DUP1 PUSH4 0xBDA088D4 EQ PUSH2 0xF0 JUMPI DUP1 PUSH4 0xD6B41D8C EQ PUSH2 0x120 JUMPI JUMPDEST PUSH1 0x0 DUP1 REVERT JUMPDEST PUSH2 0x81 PUSH1 0x4 DUP1 CALLDATASIZE SUB DUP2 ADD SWAP1 PUSH2 0x7C SWAP2 SWAP1 PUSH2 0xB29 JUMP JUMPDEST PUSH2 0x13C JUMP JUMPDEST PUSH1 0x40 MLOAD PUSH2 0x8E SWAP2 SWAP1 PUSH2 0xB71 JUMP JUMPDEST PUSH1 0x40 MLOAD DUP1 SWAP2 SUB SWAP1 RETURN JUMPDEST PUSH2 0xB1 PUSH1 0x4 DUP1 CALLDATASIZE SUB DUP2 ADD SWAP1 PUSH2 0xAC SWAP2 SWAP1 PUSH2 0xBC2 JUMP JUMPDEST PUSH2 0x15C JUMP JUMPDEST PUSH1 0x40 MLOAD PUSH2 0xC1 SWAP5 SWAP4 SWAP3 SWAP2 SWAP1 PUSH2 0xD5B JUMP JUMPDEST PUSH1 0x40 MLOAD DUP1 SWAP2 SUB SWAP1 RETURN JUMPDEST PUSH2 0xE4 PUSH1 0x4 DUP1 CALLDATASIZE SUB DUP2 ADD SWAP1 PUSH2 0xDF SWAP2 SWAP1 PUSH2 0xDAE JUMP JUMPDEST PUSH2 0x2CB JUMP JUMPDEST STOP JUMPDEST PUSH2 0xEE PUSH2 0x5F8 JUMP JUMPDEST STOP JUMPDEST PUSH2 0x10A PUSH1 0x4 DUP1 CALLDATASIZE SUB DUP2 ADD SWAP1 PUSH2 0x105 SWAP2 SWAP1 PUSH2 0xDEE JUMP JUMPDEST PUSH2 0x72D JUMP JUMPDEST PUSH1 0x40 MLOAD PUSH2 0x117 SWAP2 SWAP1 PUSH2 0xB71 JUMP JUMPDEST PUSH1 0x40 MLOAD DUP1 SWAP2 SUB SWAP1 RETURN JUMPDEST PUSH2 0x13A PUSH1 0x4 DUP1 CALLDATASIZE SUB DUP2 ADD SWAP1 PUSH2 0x135 SWAP2 SWAP1 PUSH2 0xF63 JUMP JUMPDEST PUSH2 0x798 JUMP JUMPDEST STOP JUMPDEST PUSH1 0x2 PUSH1 0x20 MSTORE DUP1 PUSH1 0x0 MSTORE PUSH1 0x40 PUSH1 0x0 KECCAK256 PUSH1 0x0 SWAP2 POP SLOAD SWAP1 PUSH2 0x100 EXP SWAP1 DIV PUSH1 0xFF AND DUP2 JUMP JUMPDEST PUSH1 0x60 PUSH1 0x0 PUSH1 0x60 PUSH1 0x0 PUSH1 0x1 PUSH1 0x0 DUP7 DUP2 MSTORE PUSH1 0x20 ADD SWAP1 DUP2 MSTORE PUSH1 0x20 ADD PUSH1 0x0 KECCAK256 PUSH1 0x0 ADD PUSH1 0x1 PUSH1 0x0 DUP8 DUP2 MSTORE PUSH1 0x20 ADD SWAP1 DUP2 MSTORE PUSH1 0x20 ADD PUSH1 0x0 KECCAK256 PUSH1 0x1 ADD PUSH1 0x0 SWAP1 SLOAD SWAP1 PUSH2 0x100 EXP SWAP1 DIV PUSH20 0xFFFFFFFFFFFFFFFFFFFFFFFFFFFFFFFFFFFFFFFF AND PUSH1 0x1 PUSH1 0x0 DUP9 DUP2 MSTORE PUSH1 0x20 ADD SWAP1 DUP2 MSTORE PUSH1 0x20 ADD PUSH1 0x0 KECCAK256 PUSH1 0x3 ADD PUSH1 0x1 PUSH1 0x0 DUP10 DUP2 MSTORE PUSH1 0x20 ADD SWAP1 DUP2 MSTORE PUSH1 0x20 ADD PUSH1 0x0 KECCAK256 PUSH1 0x2 ADD SLOAD DUP4 DUP1 SLOAD PUSH2 0x1EA SWAP1 PUSH2 0x1001 JUMP JUMPDEST DUP1 PUSH1 0x1F ADD PUSH1 0x20 DUP1 SWAP2 DIV MUL PUSH1 0x20 ADD PUSH1 0x40 MLOAD SWAP1 DUP2 ADD PUSH1 0x40 MSTORE DUP1 SWAP3 SWAP2 SWAP1 DUP2 DUP2 MSTORE PUSH1 0x20 ADD DUP3 DUP1 SLOAD PUSH2 0x216 SWAP1 PUSH2 0x1001 JUMP JUMPDEST DUP1 ISZERO PUSH2 0x263 JUMPI DUP1 PUSH1 0x1F LT PUSH2 0x238 JUMPI PUSH2 0x100 DUP1 DUP4 SLOAD DIV MUL DUP4 MSTORE SWAP2 PUSH1 0x20 ADD SWAP2 PUSH2 0x263 JUMP JUMPDEST DUP3 ADD SWAP2 SWAP1 PUSH1 0x0 MSTORE PUSH1 0x20 PUSH1 0x0 KECCAK256 SWAP1 JUMPDEST DUP2 SLOAD DUP2 MSTORE SWAP1 PUSH1 0x1 ADD SWAP1 PUSH1 0x20 ADD DUP1 DUP4 GT PUSH2 0x246 JUMPI DUP3 SWAP1 SUB PUSH1 0x1F AND DUP3 ADD SWAP2 JUMPDEST POP POP POP POP POP SWAP4 POP DUP2 DUP1 SLOAD DUP1 PUSH1 0x20 MUL PUSH1 0x20 ADD PUSH1 0x40 MLOAD SWAP1 DUP2 ADD PUSH1 0x40 MSTORE DUP1 SWAP3 SWAP2 SWAP1 DUP2 DUP2 MSTORE PUSH1 0x20 ADD DUP3 DUP1 SLOAD DUP1 ISZERO PUSH2 0x2B5 JUMPI PUSH1 0x20 MUL DUP3 ADD SWAP2 SWAP1 PUSH1 0x0 MSTORE PUSH1 0x20 PUSH1 0x0 KECCAK256 SWAP1 JUMPDEST DUP2 SLOAD DUP2 MSTORE PUSH1 0x20 ADD SWAP1 PUSH1 0x1 ADD SWAP1 DUP1 DUP4 GT PUSH2 0x2A1 JUMPI JUMPDEST POP POP POP POP POP SWAP2 POP SWAP4 POP SWAP4 POP SWAP4 POP SWAP4 POP SWAP2 SWAP4 POP SWAP2 SWAP4 JUMP JUMPDEST PUSH1 0x2 PUSH1 0x0 CALLER PUSH20 0xFFFFFFFFFFFFFFFFFFFFFFFFFFFFFFFFFFFFFFFF AND PUSH20 0xFFFFFFFFFFFFFFFFFFFFFFFFFFFFFFFFFFFFFFFF AND DUP2 MSTORE PUSH1 0x20 ADD SWAP1 DUP2 MSTORE PUSH1 0x20 ADD PUSH1 0x0 KECCAK256 PUSH1 0x0 SWAP1 SLOAD SWAP1 PUSH2 0x100 EXP SWAP1 DIV PUSH1 0xFF AND PUSH2 0x357 JUMPI PUSH1 0x40 MLOAD PUSH32 0x8C379A000000000000000000000000000000000000000000000000000000000 DUP2 MSTORE PUSH1 0x4 ADD PUSH2 0x34E SWAP1 PUSH2 0x107E JUMP JUMPDEST PUSH1 0x40 MLOAD DUP1 SWAP2 SUB SWAP1 REVERT JUMPDEST DUP2 DUP2 PUSH1 0x0 SLOAD DUP3 LT PUSH2 0x39D JUMPI PUSH1 0x40 MLOAD PUSH32 0x8C379A000000000000000000000000000000000000000000000000000000000 DUP2 MSTORE PUSH1 0x4 ADD PUSH2 0x394 SWAP1 PUSH2 0x10EA JUMP JUMPDEST PUSH1 0x40 MLOAD DUP1 SWAP2 SUB SWAP1 REVERT JUMPDEST PUSH1 0x1 PUSH1 0x0 DUP4 DUP2 MSTORE PUSH1 0x20 ADD SWAP1 DUP2 MSTORE PUSH1 0x20 ADD PUSH1 0x0 KECCAK256 PUSH1 0x5 ADD SLOAD DUP2 LT PUSH2 0x3F5 JUMPI PUSH1 0x40 MLOAD PUSH32 0x8C379A000000000000000000000000000000000000000000000000000000000 DUP2 MSTORE PUSH1 0x4 ADD PUSH2 0x3EC SWAP1 PUSH2 0x1156 JUMP JUMPDEST PUSH1 0x40 MLOAD DUP1 SWAP2 SUB SWAP1 REVERT JUMPDEST PUSH1 0x1 PUSH1 0x0 DUP4 DUP2 MSTORE PUSH1 0x20 ADD SWAP1 DUP2 MSTORE PUSH1 0x20 ADD PUSH1 0x0 KECCAK256 PUSH1 0x4 ADD PUSH1 0x0 CALLER PUSH20 0xFFFFFFFFFFFFFFFFFFFFFFFFFFFFFFFFFFFFFFFF AND PUSH20 0xFFFFFFFFFFFFFFFFFFFFFFFFFFFFFFFFFFFFFFFF AND DUP2 MSTORE PUSH1 0x20 ADD SWAP1 DUP2 MSTORE PUSH1 0x20 ADD PUSH1 0x0 KECCAK256 PUSH1 0x0 SWAP1 SLOAD SWAP1 PUSH2 0x100 EXP SWAP1 DIV PUSH1 0xFF AND ISZERO PUSH2 0x496 JUMPI PUSH1 0x40 MLOAD PUSH32 0x8C379A000000000000000000000000000000000000000000000000000000000 DUP2 MSTORE PUSH1 0x4 ADD PUSH2 0x48D SWAP1 PUSH2 0x11C2 JUMP JUMPDEST PUSH1 0x40 MLOAD DUP1 SWAP2 SUB SWAP1 REVERT JUMPDEST PUSH1 0x1 PUSH1 0x0 DUP4 DUP2 MSTORE PUSH1 0x20 ADD SWAP1 DUP2 MSTORE PUSH1 0x20 ADD PUSH1 0x0 KECCAK256 PUSH1 0x2 ADD SLOAD TIMESTAMP GT ISZERO PUSH2 0x4EF JUMPI PUSH1 0x40 MLOAD PUSH32 0x8C379A000000000000000000000000000000000000000000000000000000000 DUP2 MSTORE PUSH1 0x4 ADD PUSH2 0x4E6 SWAP1 PUSH2 0x122E JUMP JUMPDEST PUSH1 0x40 MLOAD DUP1 SWAP2 SUB SWAP1 REVERT JUMPDEST PUSH1 0x1 PUSH1 0x0 DUP6 DUP2 MSTORE PUSH1 0x20 ADD SWAP1 DUP2 MSTORE PUSH1 0x20 ADD PUSH1 0x0 KECCAK256 PUSH1 0x3 ADD DUP4 DUP2 SLOAD DUP2 LT PUSH2 0x517 JUMPI PUSH2 0x516 PUSH2 0x124E JUMP JUMPDEST JUMPDEST SWAP1 PUSH1 0x0 MSTORE PUSH1 0x20 PUSH1 0x0 KECCAK256 ADD PUSH1 0x0 DUP2 SLOAD DUP1 SWAP3 SWAP2 SWAP1 PUSH2 0x532 SWAP1 PUSH2 0x12AC JUMP JUMPDEST SWAP2 SWAP1 POP SSTORE POP PUSH1 0x1 DUP1 PUSH1 0x0 DUP7 DUP2 MSTORE PUSH1 0x20 ADD SWAP1 DUP2 MSTORE PUSH1 0x20 ADD PUSH1 0x0 KECCAK256 PUSH1 0x4 ADD PUSH1 0x0 CALLER PUSH20 0xFFFFFFFFFFFFFFFFFFFFFFFFFFFFFFFFFFFFFFFF AND PUSH20 0xFFFFFFFFFFFFFFFFFFFFFFFFFFFFFFFFFFFFFFFF AND DUP2 MSTORE PUSH1 0x20 ADD SWAP1 DUP2 MSTORE PUSH1 0x20 ADD PUSH1 0x0 KECCAK256 PUSH1 0x0 PUSH2 0x100 EXP DUP2 SLOAD DUP2 PUSH1 0xFF MUL NOT AND SWAP1 DUP4 ISZERO ISZERO MUL OR SWAP1 SSTORE POP DUP3 DUP5 CALLER PUSH20 0xFFFFFFFFFFFFFFFFFFFFFFFFFFFFFFFFFFFFFFFF AND PUSH32 0xC32B42768A47A585121E9B8D7A2AB9D3F34C326A192DEE11EE1732E3D18313F3 TIMESTAMP PUSH1 0x40 MLOAD PUSH2 0x5EA SWAP2 SWAP1 PUSH2 0x12F4 JUMP JUMPDEST PUSH1 0x40 MLOAD DUP1 SWAP2 SUB SWAP1 LOG4 POP POP POP POP JUMP JUMPDEST PUSH1 0x2 PUSH1 0x0 CALLER PUSH20 0xFFFFFFFFFFFFFFFFFFFFFFFFFFFFFFFFFFFFFFFF AND PUSH20 0xFFFFFFFFFFFFFFFFFFFFFFFFFFFFFFFFFFFFFFFF AND DUP2 MSTORE PUSH1 0x20 ADD SWAP1 DUP2 MSTORE PUSH1 0x20 ADD PUSH1 0x0 KECCAK256 PUSH1 0x0 SWAP1 SLOAD SWAP1 PUSH2 0x100 EXP SWAP1 DIV PUSH1 0xFF AND ISZERO PUSH2 0x685 JUMPI PUSH1 0x40 MLOAD PUSH32 0x8C379A000000000000000000000000000000000000000000000000000000000 DUP2 MSTORE PUSH1 0x4 ADD PUSH2 0x67C SWAP1 PUSH2 0x135B JUMP JUMPDEST PUSH1 0x40 MLOAD DUP1 SWAP2 SUB SWAP1 REVERT JUMPDEST PUSH1 0x1 PUSH1 0x2 PUSH1 0x0 CALLER PUSH20 0xFFFFFFFFFFFFFFFFFFFFFFFFFFFFFFFFFFFFFFFF AND PUSH20 0xFFFFFFFFFFFFFFFFFFFFFFFFFFFFFFFFFFFFFFFF AND DUP2 MSTORE PUSH1 0x20 ADD SWAP1 DUP2 MSTORE PUSH1 0x20 ADD PUSH1 0x0 KECCAK256 PUSH1 0x0 PUSH2 0x100 EXP DUP2 SLOAD DUP2 PUSH1 0xFF MUL NOT AND SWAP1 DUP4 ISZERO ISZERO MUL OR SWAP1 SSTORE POP CALLER PUSH20 0xFFFFFFFFFFFFFFFFFFFFFFFFFFFFFFFFFFFFFFFF AND PUSH32 0x7F3B9EFFE05CFB4F31F854004DE03199FD03FE56BF38A48B2AA9A9F4402D6E23 TIMESTAMP PUSH1 0x40 MLOAD PUSH2 0x723 SWAP2 SWAP1 PUSH2 0x12F4 JUMP JUMPDEST PUSH1 0x40 MLOAD DUP1 SWAP2 SUB SWAP1 LOG2 JUMP JUMPDEST PUSH1 0x0 PUSH1 0x1 PUSH1 0x0 DUP4 DUP2 MSTORE PUSH1 0x20 ADD SWAP1 DUP2 MSTORE PUSH1 0x20 ADD PUSH1 0x0 KECCAK256 PUSH1 0x4 ADD PUSH1 0x0 DUP5 PUSH20 0xFFFFFFFFFFFFFFFFFFFFFFFFFFFFFFFFFFFFFFFF AND PUSH20 0xFFFFFFFFFFFFFFFFFFFFFFFFFFFFFFFFFFFFFFFF AND DUP2 MSTORE PUSH1 0x20 ADD SWAP1 DUP2 MSTORE PUSH1 0x20 ADD PUSH1 0x0 KECCAK256 PUSH1 0x0 SWAP1 SLOAD SWAP1 PUSH2 0x100 EXP SWAP1 DIV PUSH1 0xFF AND SWAP1 POP SWAP3 SWAP2 POP POP JUMP JUMPDEST PUSH1 0x2 PUSH1 0x0 CALLER PUSH20 0xFFFFFFFFFFFFFFFFFFFFFFFFFFFFFFFFFFFFFFFF AND PUSH20 0xFFFFFFFFFFFFFFFFFFFFFFFFFFFFFFFFFFFFFFFF AND DUP2 MSTORE PUSH1 0x20 ADD SWAP1 DUP2 MSTORE PUSH1 0x20 ADD PUSH1 0x0 KECCAK256 PUSH1 0x0 SWAP1 SLOAD SWAP1 PUSH2 0x100 EXP SWAP1 DIV PUSH1 0xFF AND PUSH2 0x824 JUMPI PUSH1 0x40 MLOAD PUSH32 0x8C379A000000000000000000000000000000000000000000000000000000000 DUP2 MSTORE PUSH1 0x4 ADD PUSH2 0x81B SWAP1 PUSH2 0x107E JUMP JUMPDEST PUSH1 0x40 MLOAD DUP1 SWAP2 SUB SWAP1 REVERT JUMPDEST PUSH1 0x2 DUP2 LT ISZERO DUP1 ISZERO PUSH2 0x836 JUMPI POP PUSH1 0x8 DUP2 GT ISZERO JUMPDEST PUSH2 0x875 JUMPI PUSH1 0x40 MLOAD PUSH32 0x8C379A000000000000000000000000000000000000000000000000000000000 DUP2 MSTORE PUSH1 0x4 ADD PUSH2 0x86C SWAP1 PUSH2 0x13ED JUMP JUMPDEST PUSH1 0x40 MLOAD DUP1 SWAP2 SUB SWAP1 REVERT JUMPDEST TIMESTAMP DUP3 GT PUSH2 0x8B7 JUMPI PUSH1 0x40 MLOAD PUSH32 0x8C379A000000000000000000000000000000000000000000000000000000000 DUP2 MSTORE PUSH1 0x4 ADD PUSH2 0x8AE SWAP1 PUSH2 0x1459 JUMP JUMPDEST PUSH1 0x40 MLOAD DUP1 SWAP2 SUB SWAP1 REVERT JUMPDEST PUSH1 0x0 DUP1 SLOAD SWAP1 POP PUSH1 0x0 DUP1 DUP2 SLOAD DUP1 SWAP3 SWAP2 SWAP1 PUSH2 0x8CF SWAP1 PUSH2 0x12AC JUMP JUMPDEST SWAP2 SWAP1 POP SSTORE POP DUP4 PUSH1 0x1 PUSH1 0x0 DUP4 DUP2 MSTORE PUSH1 0x20 ADD SWAP1 DUP2 MSTORE PUSH1 0x20 ADD PUSH1 0x0 KECCAK256 PUSH1 0x0 ADD SWAP1 DUP2 PUSH2 0x8F7 SWAP2 SWAP1 PUSH2 0x1625 JUMP JUMPDEST POP DUP3 PUSH1 0x1 PUSH1 0x0 DUP4 DUP2 MSTORE PUSH1 0x20 ADD SWAP1 DUP2 MSTORE PUSH1 0x20 ADD PUSH1 0x0 KECCAK256 PUSH1 0x2 ADD DUP2 SWAP1 SSTORE POP DUP2 PUSH1 0x1 PUSH1 0x0 DUP4 DUP2 MSTORE PUSH1 0x20 ADD SWAP1 DUP2 MSTORE PUSH1 0x20 ADD PUSH1 0x0 KECCAK256 PUSH1 0x5 ADD DUP2 SWAP1 SSTORE POP CALLER PUSH1 0x1 PUSH1 0x0 DUP4 DUP2 MSTORE PUSH1 0x20 ADD SWAP1 DUP2 MSTORE PUSH1 0x20 ADD PUSH1 0x0 KECCAK256 PUSH1 0x1 ADD PUSH1 0x0 PUSH2 0x100 EXP DUP2 SLOAD DUP2 PUSH20 0xFFFFFFFFFFFFFFFFFFFFFFFFFFFFFFFFFFFFFFFF MUL NOT AND SWAP1 DUP4 PUSH20 0xFFFFFFFFFFFFFFFFFFFFFFFFFFFFFFFFFFFFFFFF AND MUL OR SWAP1 SSTORE POP DUP2 PUSH8 0xFFFFFFFFFFFFFFFF DUP2 GT ISZERO PUSH2 0x99D JUMPI PUSH2 0x99C PUSH2 0xE38 JUMP JUMPDEST JUMPDEST PUSH1 0x40 MLOAD SWAP1 DUP1 DUP3 MSTORE DUP1 PUSH1 0x20 MUL PUSH1 0x20 ADD DUP3 ADD PUSH1 0x40 MSTORE DUP1 ISZERO PUSH2 0x9CB JUMPI DUP2 PUSH1 0x20 ADD PUSH1 0x20 DUP3 MUL DUP1 CALLDATASIZE DUP4 CALLDATACOPY DUP1 DUP3 ADD SWAP2 POP POP SWAP1 POP JUMPDEST POP PUSH1 0x1 PUSH1 0x0 DUP4 DUP2 MSTORE PUSH1 0x20 ADD SWAP1 DUP2 MSTORE PUSH1 0x20 ADD PUSH1 0x0 KECCAK256 PUSH1 0x3 ADD SWAP1 DUP1 MLOAD SWAP1 PUSH1 0x20 ADD SWAP1 PUSH2 0x9F5 SWAP3 SWAP2 SWAP1 PUSH2 0xA4D JUMP JUMPDEST POP DUP1 CALLER PUSH20 0xFFFFFFFFFFFFFFFFFFFFFFFFFFFFFFFFFFFFFFFF AND PUSH32 0x7DBDC74DFA202714F01BA5D9F06FAFEBC553262226547369C54DB89D113D3667 TIMESTAMP DUP7 PUSH1 0x40 MLOAD PUSH2 0xA3F SWAP3 SWAP2 SWAP1 PUSH2 0x16F7 JUMP JUMPDEST PUSH1 0x40 MLOAD DUP1 SWAP2 SUB SWAP1 LOG3 POP POP POP POP JUMP JUMPDEST DUP3 DUP1 SLOAD DUP3 DUP3 SSTORE SWAP1 PUSH1 0x0 MSTORE PUSH1 0x20 PUSH1 0x0 KECCAK256 SWAP1 DUP2 ADD SWAP3 DUP3 ISZERO PUSH2 0xA89 JUMPI SWAP2 PUSH1 0x20 MUL DUP3 ADD JUMPDEST DUP3 DUP2 GT ISZERO PUSH2 0xA88 JUMPI DUP3 MLOAD DUP3 SSTORE SWAP2 PUSH1 0x20 ADD SWAP2 SWAP1 PUSH1 0x1 ADD SWAP1 PUSH2 0xA6D JUMP JUMPDEST JUMPDEST POP SWAP1 POP PUSH2 0xA96 SWAP2 SWAP1 PUSH2 0xA9A JUMP JUMPDEST POP SWAP1 JUMP JUMPDEST JUMPDEST DUP1 DUP3 GT ISZERO PUSH2 0xAB3 JUMPI PUSH1 0x0 DUP2 PUSH1 0x0 SWAP1 SSTORE POP PUSH1 0x1 ADD PUSH2 0xA9B JUMP JUMPDEST POP SWAP1 JUMP JUMPDEST PUSH1 0x0 PUSH1 0x40 MLOAD SWAP1 POP SWAP1 JUMP JUMPDEST PUSH1 0x0 DUP1 REVERT JUMPDEST PUSH1 0x0 DUP1 REVERT JUMPDEST PUSH1 0x0 PUSH20 0xFFFFFFFFFFFFFFFFFFFFFFFFFFFFFFFFFFFFFFFF DUP3 AND SWAP1 POP SWAP2 SWAP1 POP JUMP JUMPDEST PUSH1 0x0 PUSH2 0xAF6 DUP3 PUSH2 0xACB JUMP JUMPDEST SWAP1 POP SWAP2 SWAP1 POP JUMP JUMPDEST PUSH2 0xB06 DUP2 PUSH2 0xAEB JUMP JUMPDEST DUP2 EQ PUSH2 0xB11 JUMPI PUSH1 0x0 DUP1 REVERT JUMPDEST POP JUMP JUMPDEST PUSH1 0x0 DUP2 CALLDATALOAD SWAP1 POP PUSH2 0xB23 DUP2 PUSH2 0xAFD JUMP JUMPDEST SWAP3 SWAP2 POP POP JUMP JUMPDEST PUSH1 0x0 PUSH1 0x20 DUP3 DUP5 SUB SLT ISZERO PUSH2 0xB3F JUMPI PUSH2 0xB3E PUSH2 0xAC1 JUMP JUMPDEST JUMPDEST PUSH1 0x0 PUSH2 0xB4D DUP5 DUP3 DUP6 ADD PUSH2 0xB14 JUMP JUMPDEST SWAP2 POP POP SWAP3 SWAP2 POP POP JUMP JUMPDEST PUSH1 0x0 DUP2 ISZERO ISZERO SWAP1 POP SWAP2 SWAP1 POP JUMP JUMPDEST PUSH2 0xB6B DUP2 PUSH2 0xB56 JUMP JUMPDEST DUP3 MSTORE POP POP JUMP JUMPDEST PUSH1 0x0 PUSH1 0x20 DUP3 ADD SWAP1 POP PUSH2 0xB86 PUSH1 0x0 DUP4 ADD DUP5 PUSH2 0xB62 JUMP JUMPDEST SWAP3 SWAP2 POP POP JUMP JUMPDEST PUSH1 0x0 DUP2 SWAP1 POP SWAP2 SWAP1 POP JUMP JUMPDEST PUSH2 0xB9F DUP2 PUSH2 0xB8C JUMP JUMPDEST DUP2 EQ PUSH2 0xBAA JUMPI PUSH1 0x0 DUP1 REVERT JUMPDEST POP JUMP JUMPDEST PUSH1 0x0 DUP2 CALLDATALOAD SWAP1 POP PUSH2 0xBBC DUP2 PUSH2 0xB96 JUMP JUMPDEST SWAP3 SWAP2 POP POP JUMP JUMPDEST PUSH1 0x0 PUSH1 0x20 DUP3 DUP5 SUB SLT ISZERO PUSH2 0xBD8 JUMPI PUSH2 0xBD7 PUSH2 0xAC1 JUMP JUMPDEST JUMPDEST PUSH1 0x0 PUSH2 0xBE6 DUP5 DUP3 DUP6 ADD PUSH2 0xBAD JUMP JUMPDEST SWAP2 POP POP SWAP3 SWAP2 POP POP JUMP JUMPDEST PUSH1 0x0 DUP2 MLOAD SWAP1 POP SWAP2 SWAP1 POP JUMP JUMPDEST PUSH1 0x0 DUP3 DUP3 MSTORE PUSH1 0x20 DUP3 ADD SWAP1 POP SWAP3 SWAP2 POP POP JUMP JUMPDEST PUSH1 0x0 JUMPDEST DUP4 DUP2 LT ISZERO PUSH2 0xC29 JUMPI DUP1 DUP3 ADD MLOAD DUP2 DUP5 ADD MSTORE PUSH1 0x20 DUP2 ADD SWAP1 POP PUSH2 0xC0E JUMP JUMPDEST PUSH1 0x0 DUP5 DUP5 ADD MSTORE POP POP POP POP JUMP JUMPDEST PUSH1 0x0 PUSH1 0x1F NOT PUSH1 0x1F DUP4 ADD AND SWAP1 POP SWAP2 SWAP1 POP JUMP JUMPDEST PUSH1 0x0 PUSH2 0xC51 DUP3 PUSH2 0xBEF JUMP JUMPDEST PUSH2 0xC5B DUP2 DUP6 PUSH2 0xBFA JUMP JUMPDEST SWAP4 POP PUSH2 0xC6B DUP2 DUP6 PUSH1 0x20 DUP7 ADD PUSH2 0xC0B JUMP JUMPDEST PUSH2 0xC74 DUP2 PUSH2 0xC35 JUMP JUMPDEST DUP5 ADD SWAP2 POP POP SWAP3 SWAP2 POP POP JUMP JUMPDEST PUSH2 0xC88 DUP2 PUSH2 0xAEB JUMP JUMPDEST DUP3 MSTORE POP POP JUMP JUMPDEST PUSH1 0x0 DUP2 MLOAD SWAP1 POP SWAP2 SWAP1 POP JUMP JUMPDEST PUSH1 0x0 DUP3 DUP3 MSTORE PUSH1 0x20 DUP3 ADD SWAP1 POP SWAP3 SWAP2 POP POP JUMP JUMPDEST PUSH1 0x0 DUP2 SWAP1 POP PUSH1 0x20 DUP3 ADD SWAP1 POP SWAP2 SWAP1 POP JUMP JUMPDEST PUSH2 0xCC3 DUP2 PUSH2 0xB8C JUMP JUMPDEST DUP3 MSTORE POP POP JUMP JUMPDEST PUSH1 0x0 PUSH2 0xCD5 DUP4 DUP4 PUSH2 0xCBA JUMP JUMPDEST PUSH1 0x20 DUP4 ADD SWAP1 POP SWAP3 SWAP2 POP POP JUMP JUMPDEST PUSH1 0x0 PUSH1 0x20 DUP3 ADD SWAP1 POP SWAP2 SWAP1 POP JUMP JUMPDEST PUSH1 0x0 PUSH2 0xCF9 DUP3 PUSH2 0xC8E JUMP JUMPDEST PUSH2 0xD03 DUP2 DUP6 PUSH2 0xC99 JUMP JUMPDEST SWAP4 POP PUSH2 0xD0E DUP4 PUSH2 0xCAA JUMP JUMPDEST DUP1 PUSH1 0x0 JUMPDEST DUP4 DUP2 LT ISZERO PUSH2 0xD3F JUMPI DUP2 MLOAD PUSH2 0xD26 DUP9 DUP3 PUSH2 0xCC9 JUMP JUMPDEST SWAP8 POP PUSH2 0xD31 DUP4 PUSH2 0xCE1 JUMP JUMPDEST SWAP3 POP POP PUSH1 0x1 DUP2 ADD SWAP1 POP PUSH2 0xD12 JUMP JUMPDEST POP DUP6 SWAP4 POP POP POP POP SWAP3 SWAP2 POP POP JUMP JUMPDEST PUSH2 0xD55 DUP2 PUSH2 0xB8C JUMP JUMPDEST DUP3 MSTORE POP POP JUMP JUMPDEST PUSH1 0x0 PUSH1 0x80 DUP3 ADD SWAP1 POP DUP2 DUP2 SUB PUSH1 0x0 DUP4 ADD MSTORE PUSH2 0xD75 DUP2 DUP8 PUSH2 0xC46 JUMP JUMPDEST SWAP1 POP PUSH2 0xD84 PUSH1 0x20 DUP4 ADD DUP7 PUSH2 0xC7F JUMP JUMPDEST DUP2 DUP2 SUB PUSH1 0x40 DUP4 ADD MSTORE PUSH2 0xD96 DUP2 DUP6 PUSH2 0xCEE JUMP JUMPDEST SWAP1 POP PUSH2 0xDA5 PUSH1 0x60 DUP4 ADD DUP5 PUSH2 0xD4C JUMP JUMPDEST SWAP6 SWAP5 POP POP POP POP POP JUMP JUMPDEST PUSH1 0x0 DUP1 PUSH1 0x40 DUP4 DUP6 SUB SLT ISZERO PUSH2 0xDC5 JUMPI PUSH2 0xDC4 PUSH2 0xAC1 JUMP JUMPDEST JUMPDEST PUSH1 0x0 PUSH2 0xDD3 DUP6 DUP3 DUP7 ADD PUSH2 0xBAD JUMP JUMPDEST SWAP3 POP POP PUSH1 0x20 PUSH2 0xDE4 DUP6 DUP3 DUP7 ADD PUSH2 0xBAD JUMP JUMPDEST SWAP2 POP POP SWAP3 POP SWAP3 SWAP1 POP JUMP JUMPDEST PUSH1 0x0 DUP1 PUSH1 0x40 DUP4 DUP6 SUB SLT ISZERO PUSH2 0xE05 JUMPI PUSH2 0xE04 PUSH2 0xAC1 JUMP JUMPDEST JUMPDEST PUSH1 0x0 PUSH2 0xE13 DUP6 DUP3 DUP7 ADD PUSH2 0xB14 JUMP JUMPDEST SWAP3 POP POP PUSH1 0x20 PUSH2 0xE24 DUP6 DUP3 DUP7 ADD PUSH2 0xBAD JUMP JUMPDEST SWAP2 POP POP SWAP3 POP SWAP3 SWAP1 POP JUMP JUMPDEST PUSH1 0x0 DUP1 REVERT JUMPDEST PUSH1 0x0 DUP1 REVERT JUMPDEST PUSH32 0x4E487B7100000000000000000000000000000000000000000000000000000000 PUSH1 0x0 MSTORE PUSH1 0x41 PUSH1 0x4 MSTORE PUSH1 0x24 PUSH1 0x0 REVERT JUMPDEST PUSH2 0xE70 DUP3 PUSH2 0xC35 JUMP JUMPDEST DUP2 ADD DUP2 DUP2 LT PUSH8 0xFFFFFFFFFFFFFFFF DUP3 GT OR ISZERO PUSH2 0xE8F JUMPI PUSH2 0xE8E PUSH2 0xE38 JUMP JUMPDEST JUMPDEST DUP1 PUSH1 0x40 MSTORE POP POP POP JUMP JUMPDEST PUSH1 0x0 PUSH2 0xEA2 PUSH2 0xAB7 JUMP JUMPDEST SWAP1 POP PUSH2 0xEAE DUP3 DUP3 PUSH2 0xE67 JUMP JUMPDEST SWAP2 SWAP1 POP JUMP JUMPDEST PUSH1 0x0 PUSH8 0xFFFFFFFFFFFFFFFF DUP3 GT ISZERO PUSH2 0xECE JUMPI PUSH2 0xECD PUSH2 0xE38 JUMP JUMPDEST JUMPDEST PUSH2 0xED7 DUP3 PUSH2 0xC35 JUMP JUMPDEST SWAP1 POP PUSH1 0x20 DUP2 ADD SWAP1 POP SWAP2 SWAP1 POP JUMP JUMPDEST DUP3 DUP2 DUP4 CALLDATACOPY PUSH1 0x0 DUP4 DUP4 ADD MSTORE POP POP POP JUMP JUMPDEST PUSH1 0x0 PUSH2 0xF06 PUSH2 0xF01 DUP5 PUSH2 0xEB3 JUMP JUMPDEST PUSH2 0xE98 JUMP JUMPDEST SWAP1 POP DUP3 DUP2 MSTORE PUSH1 0x20 DUP2 ADD DUP5 DUP5 DUP5 ADD GT ISZERO PUSH2 0xF22 JUMPI PUSH2 0xF21 PUSH2 0xE33 JUMP JUMPDEST JUMPDEST PUSH2 0xF2D DUP5 DUP3 DUP6 PUSH2 0xEE4 JUMP JUMPDEST POP SWAP4 SWAP3 POP POP POP JUMP JUMPDEST PUSH1 0x0 DUP3 PUSH1 0x1F DUP4 ADD SLT PUSH2 0xF4A JUMPI PUSH2 0xF49 PUSH2 0xE2E JUMP JUMPDEST JUMPDEST DUP2 CALLDATALOAD PUSH2 0xF5A DUP5 DUP3 PUSH1 0x20 DUP7 ADD PUSH2 0xEF3 JUMP JUMPDEST SWAP2 POP POP SWAP3 SWAP2 POP POP JUMP JUMPDEST PUSH1 0x0 DUP1 PUSH1 0x0 PUSH1 0x60 DUP5 DUP7 SUB SLT ISZERO PUSH2 0xF7C JUMPI PUSH2 0xF7B PUSH2 0xAC1 JUMP JUMPDEST JUMPDEST PUSH1 0x0 DUP5 ADD CALLDATALOAD PUSH8 0xFFFFFFFFFFFFFFFF DUP2 GT ISZERO PUSH2 0xF9A JUMPI PUSH2 0xF99 PUSH2 0xAC6 JUMP JUMPDEST JUMPDEST PUSH2 0xFA6 DUP7 DUP3 DUP8 ADD PUSH2 0xF35 JUMP JUMPDEST SWAP4 POP POP PUSH1 0x20 PUSH2 0xFB7 DUP7 DUP3 DUP8 ADD PUSH2 0xBAD JUMP JUMPDEST SWAP3 POP POP PUSH1 0x40 PUSH2 0xFC8 DUP7 DUP3 DUP8 ADD PUSH2 0xBAD JUMP JUMPDEST SWAP2 POP POP SWAP3 POP SWAP3 POP SWAP3 JUMP JUMPDEST PUSH32 0x4E487B7100000000000000000000000000000000000000000000000000000000 PUSH1 0x0 MSTORE PUSH1 0x22 PUSH1 0x4 MSTORE PUSH1 0x24 PUSH1 0x0 REVERT JUMPDEST PUSH1 0x0 PUSH1 0x2 DUP3 DIV SWAP1 POP PUSH1 0x1 DUP3 AND DUP1 PUSH2 0x1019 JUMPI PUSH1 0x7F DUP3 AND SWAP2 POP JUMPDEST PUSH1 0x20 DUP3 LT DUP2 SUB PUSH2 0x102C JUMPI PUSH2 0x102B PUSH2 0xFD2 JUMP JUMPDEST JUMPDEST POP SWAP2 SWAP1 POP JUMP JUMPDEST PUSH32 0x796F7520617265206E6F742061206D656D626572000000000000000000000000 PUSH1 0x0 DUP3 ADD MSTORE POP JUMP JUMPDEST PUSH1 0x0 PUSH2 0x1068 PUSH1 0x14 DUP4 PUSH2 0xBFA JUMP JUMPDEST SWAP2 POP PUSH2 0x1073 DUP3 PUSH2 0x1032 JUMP JUMPDEST PUSH1 0x20 DUP3 ADD SWAP1 POP SWAP2 SWAP1 POP JUMP JUMPDEST PUSH1 0x0 PUSH1 0x20 DUP3 ADD SWAP1 POP DUP2 DUP2 SUB PUSH1 0x0 DUP4 ADD MSTORE PUSH2 0x1097 DUP2 PUSH2 0x105B JUMP JUMPDEST SWAP1 POP SWAP2 SWAP1 POP JUMP JUMPDEST PUSH32 0x73757276657920646F6573206E6F742065786973740000000000000000000000 PUSH1 0x0 DUP3 ADD MSTORE POP JUMP JUMPDEST PUSH1 0x0 PUSH2 0x10D4 PUSH1 0x15 DUP4 PUSH2 0xBFA JUMP JUMPDEST SWAP2 POP PUSH2 0x10DF DUP3 PUSH2 0x109E JUMP JUMPDEST PUSH1 0x20 DUP3 ADD SWAP1 POP SWAP2 SWAP1 POP JUMP JUMPDEST PUSH1 0x0 PUSH1 0x20 DUP3 ADD SWAP1 POP DUP2 DUP2 SUB PUSH1 0x0 DUP4 ADD MSTORE PUSH2 0x1103 DUP2 PUSH2 0x10C7 JUMP JUMPDEST SWAP1 POP SWAP2 SWAP1 POP JUMP JUMPDEST PUSH32 0x696E76616C6964206F7074696F6E000000000000000000000000000000000000 PUSH1 0x0 DUP3 ADD MSTORE POP JUMP JUMPDEST PUSH1 0x0 PUSH2 0x1140 PUSH1 0xE DUP4 PUSH2 0xBFA JUMP JUMPDEST SWAP2 POP PUSH2 0x114B DUP3 PUSH2 0x110A JUMP JUMPDEST PUSH1 0x20 DUP3 ADD SWAP1 POP SWAP2 SWAP1 POP JUMP JUMPDEST PUSH1 0x0 PUSH1 0x20 DUP3 ADD SWAP1 POP DUP2 DUP2 SUB PUSH1 0x0 DUP4 ADD MSTORE PUSH2 0x116F DUP2 PUSH2 0x1133 JUMP JUMPDEST SWAP1 POP SWAP2 SWAP1 POP JUMP JUMPDEST PUSH32 0x796F75206861766520616C726561647920766F74656400000000000000000000 PUSH1 0x0 DUP3 ADD MSTORE POP JUMP JUMPDEST PUSH1 0x0 PUSH2 0x11AC PUSH1 0x16 DUP4 PUSH2 0xBFA JUMP JUMPDEST SWAP2 POP PUSH2 0x11B7 DUP3 PUSH2 0x1176 JUMP JUMPDEST PUSH1 0x20 DUP3 ADD SWAP1 POP SWAP2 SWAP1 POP JUMP JUMPDEST PUSH1 0x0 PUSH1 0x20 DUP3 ADD SWAP1 POP DUP2 DUP2 SUB PUSH1 0x0 DUP4 ADD MSTORE PUSH2 0x11DB DUP2 PUSH2 0x119F JUMP JUMPDEST SWAP1 POP SWAP2 SWAP1 POP JUMP JUMPDEST PUSH32 0x7375727665792068617320656E64656400000000000000000000000000000000 PUSH1 0x0 DUP3 ADD MSTORE POP JUMP JUMPDEST PUSH1 0x0 PUSH2 0x1218 PUSH1 0x10 DUP4 PUSH2 0xBFA JUMP JUMPDEST SWAP2 POP PUSH2 0x1223 DUP3 PUSH2 0x11E2 JUMP JUMPDEST PUSH1 0x20 DUP3 ADD SWAP1 POP SWAP2 SWAP1 POP JUMP JUMPDEST PUSH1 0x0 PUSH1 0x20 DUP3 ADD SWAP1 POP DUP2 DUP2 SUB PUSH1 0x0 DUP4 ADD MSTORE PUSH2 0x1247 DUP2 PUSH2 0x120B JUMP JUMPDEST SWAP1 POP SWAP2 SWAP1 POP JUMP JUMPDEST PUSH32 0x4E487B7100000000000000000000000000000000000000000000000000000000 PUSH1 0x0 MSTORE PUSH1 0x32 PUSH1 0x4 MSTORE PUSH1 0x24 PUSH1 0x0 REVERT JUMPDEST PUSH32 0x4E487B7100000000000000000000000000000000000000000000000000000000 PUSH1 0x0 MSTORE PUSH1 0x11 PUSH1 0x4 MSTORE PUSH1 0x24 PUSH1 0x0 REVERT JUMPDEST PUSH1 0x0 PUSH2 0x12B7 DUP3 PUSH2 0xB8C JUMP JUMPDEST SWAP2 POP PUSH32 0xFFFFFFFFFFFFFFFFFFFFFFFFFFFFFFFFFFFFFFFFFFFFFFFFFFFFFFFFFFFFFFFF DUP3 SUB PUSH2 0x12E9 JUMPI PUSH2 0x12E8 PUSH2 0x127D JUMP JUMPDEST JUMPDEST PUSH1 0x1 DUP3 ADD SWAP1 POP SWAP2 SWAP1 POP JUMP JUMPDEST PUSH1 0x0 PUSH1 0x20 DUP3 ADD SWAP1 POP PUSH2 0x1309 PUSH1 0x0 DUP4 ADD DUP5 PUSH2 0xD4C JUMP JUMPDEST SWAP3 SWAP2 POP POP JUMP JUMPDEST PUSH32 0x796F752061726520616C72656164792061206D656D6265720000000000000000 PUSH1 0x0 DUP3 ADD MSTORE POP JUMP JUMPDEST PUSH1 0x0 PUSH2 0x1345 PUSH1 0x18 DUP4 PUSH2 0xBFA JUMP JUMPDEST SWAP2 POP PUSH2 0x1350 DUP3 PUSH2 0x130F JUMP JUMPDEST PUSH1 0x20 DUP3 ADD SWAP1 POP SWAP2 SWAP1 POP JUMP JUMPDEST PUSH1 0x0 PUSH1 0x20 DUP3 ADD SWAP1 POP DUP2 DUP2 SUB PUSH1 0x0 DUP4 ADD MSTORE PUSH2 0x1374 DUP2 PUSH2 0x1338 JUMP JUMPDEST SWAP1 POP SWAP2 SWAP1 POP JUMP JUMPDEST PUSH32 0x6E756D626572206F66206F7074696F6E73206D75737420626520626574776565 PUSH1 0x0 DUP3 ADD MSTORE PUSH32 0x6E203220616E6420380000000000000000000000000000000000000000000000 PUSH1 0x20 DUP3 ADD MSTORE POP JUMP JUMPDEST PUSH1 0x0 PUSH2 0x13D7 PUSH1 0x29 DUP4 PUSH2 0xBFA JUMP JUMPDEST SWAP2 POP PUSH2 0x13E2 DUP3 PUSH2 0x137B JUMP JUMPDEST PUSH1 0x40 DUP3 ADD SWAP1 POP SWAP2 SWAP1 POP JUMP JUMPDEST PUSH1 0x0 PUSH1 0x20 DUP3 ADD SWAP1 POP DUP2 DUP2 SUB PUSH1 0x0 DUP4 ADD MSTORE PUSH2 0x1406 DUP2 PUSH2 0x13CA JUMP JUMPDEST SWAP1 POP SWAP2 SWAP1 POP JUMP JUMPDEST PUSH32 0x656E642074696D652063616E6E6F7420626520696E2070617374000000000000 PUSH1 0x0 DUP3 ADD MSTORE POP JUMP JUMPDEST PUSH1 0x0 PUSH2 0x1443 PUSH1 0x1A DUP4 PUSH2 0xBFA JUMP JUMPDEST SWAP2 POP PUSH2 0x144E DUP3 PUSH2 0x140D JUMP JUMPDEST PUSH1 0x20 DUP3 ADD SWAP1 POP SWAP2 SWAP1 POP JUMP JUMPDEST PUSH1 0x0 PUSH1 0x20 DUP3 ADD SWAP1 POP DUP2 DUP2 SUB PUSH1 0x0 DUP4 ADD MSTORE PUSH2 0x1472 DUP2 PUSH2 0x1436 JUMP JUMPDEST SWAP1 POP SWAP2 SWAP1 POP JUMP JUMPDEST PUSH1 0x0 DUP2 SWAP1 POP DUP2 PUSH1 0x0 MSTORE PUSH1 0x20 PUSH1 0x0 KECCAK256 SWAP1 POP SWAP2 SWAP1 POP JUMP JUMPDEST PUSH1 0x0 PUSH1 0x20 PUSH1 0x1F DUP4 ADD DIV SWAP1 POP SWAP2 SWAP1 POP JUMP JUMPDEST PUSH1 0x0 DUP3 DUP3 SHL SWAP1 POP SWAP3 SWAP2 POP POP JUMP JUMPDEST PUSH1 0x0 PUSH1 0x8 DUP4 MUL PUSH2 0x14DB PUSH32 0xFFFFFFFFFFFFFFFFFFFFFFFFFFFFFFFFFFFFFFFFFFFFFFFFFFFFFFFFFFFFFFFF DUP3 PUSH2 0x149E JUMP JUMPDEST PUSH2 0x14E5 DUP7 DUP4 PUSH2 0x149E JUMP JUMPDEST SWAP6 POP DUP1 NOT DUP5 AND SWAP4 POP DUP1 DUP7 AND DUP5 OR SWAP3 POP POP POP SWAP4 SWAP3 POP POP POP JUMP JUMPDEST PUSH1 0x0 DUP2 SWAP1 POP SWAP2 SWAP1 POP JUMP JUMPDEST PUSH1 0x0 PUSH2 0x1522 PUSH2 0x151D PUSH2 0x1518 DUP5 PUSH2 0xB8C JUMP JUMPDEST PUSH2 0x14FD JUMP JUMPDEST PUSH2 0xB8C JUMP JUMPDEST SWAP1 POP SWAP2 SWAP1 POP JUMP JUMPDEST PUSH1 0x0 DUP2 SWAP1 POP SWAP2 SWAP1 POP JUMP JUMPDEST PUSH2 0x153C DUP4 PUSH2 0x1507 JUMP JUMPDEST PUSH2 0x1550 PUSH2 0x1548 DUP3 PUSH2 0x1529 JUMP JUMPDEST DUP5 DUP5 SLOAD PUSH2 0x14AB JUMP JUMPDEST DUP3 SSTORE POP POP POP POP JUMP JUMPDEST PUSH1 0x0 SWAP1 JUMP JUMPDEST PUSH2 0x1565 PUSH2 0x1558 JUMP JUMPDEST PUSH2 0x1570 DUP2 DUP5 DUP5 PUSH2 0x1533 JUMP JUMPDEST POP POP POP JUMP JUMPDEST JUMPDEST DUP2 DUP2 LT ISZERO PUSH2 0x1594 JUMPI PUSH2 0x1589 PUSH1 0x0 DUP3 PUSH2 0x155D JUMP JUMPDEST PUSH1 0x1 DUP2 ADD SWAP1 POP PUSH2 0x1576 JUMP JUMPDEST POP POP JUMP JUMPDEST PUSH1 0x1F DUP3 GT ISZERO PUSH2 0x15D9 JUMPI PUSH2 0x15AA DUP2 PUSH2 0x1479 JUMP JUMPDEST PUSH2 0x15B3 DUP5 PUSH2 0x148E JUMP JUMPDEST DUP2 ADD PUSH1 0x20 DUP6 LT ISZERO PUSH2 0x15C2 JUMPI DUP2 SWAP1 POP JUMPDEST PUSH2 0x15D6 PUSH2 0x15CE DUP6 PUSH2 0x148E JUMP JUMPDEST DUP4 ADD DUP3 PUSH2 0x1575 JUMP JUMPDEST POP POP JUMPDEST POP POP POP JUMP JUMPDEST PUSH1 0x0 DUP3 DUP3 SHR SWAP1 POP SWAP3 SWAP2 POP POP JUMP JUMPDEST PUSH1 0x0 PUSH2 0x15FC PUSH1 0x0 NOT DUP5 PUSH1 0x8 MUL PUSH2 0x15DE JUMP JUMPDEST NOT DUP1 DUP4 AND SWAP2 POP POP SWAP3 SWAP2 POP POP JUMP JUMPDEST PUSH1 0x0 PUSH2 0x1615 DUP4 DUP4 PUSH2 0x15EB JUMP JUMPDEST SWAP2 POP DUP3 PUSH1 0x2 MUL DUP3 OR SWAP1 POP SWAP3 SWAP2 POP POP JUMP JUMPDEST PUSH2 0x162E DUP3 PUSH2 0xBEF JUMP JUMPDEST PUSH8 0xFFFFFFFFFFFFFFFF DUP2 GT ISZERO PUSH2 0x1647 JUMPI PUSH2 0x1646 PUSH2 0xE38 JUMP JUMPDEST JUMPDEST PUSH2 0x1651 DUP3 SLOAD PUSH2 0x1001 JUMP JUMPDEST PUSH2 0x165C DUP3 DUP3 DUP6 PUSH2 0x1598 JUMP JUMPDEST PUSH1 0x0 PUSH1 0x20 SWAP1 POP PUSH1 0x1F DUP4 GT PUSH1 0x1 DUP2 EQ PUSH2 0x168F JUMPI PUSH1 0x0 DUP5 ISZERO PUSH2 0x167D JUMPI DUP3 DUP8 ADD MLOAD SWAP1 POP JUMPDEST PUSH2 0x1687 DUP6 DUP3 PUSH2 0x1609 JUMP JUMPDEST DUP7 SSTORE POP PUSH2 0x16EF JUMP JUMPDEST PUSH1 0x1F NOT DUP5 AND PUSH2 0x169D DUP7 PUSH2 0x1479 JUMP JUMPDEST PUSH1 0x0 JUMPDEST DUP3 DUP2 LT ISZERO PUSH2 0x16C5 JUMPI DUP5 DUP10 ADD MLOAD DUP3 SSTORE PUSH1 0x1 DUP3 ADD SWAP2 POP PUSH1 0x20 DUP6 ADD SWAP5 POP PUSH1 0x20 DUP2 ADD SWAP1 POP PUSH2 0x16A0 JUMP JUMPDEST DUP7 DUP4 LT ISZERO PUSH2 0x16E2 JUMPI DUP5 DUP10 ADD MLOAD PUSH2 0x16DE PUSH1 0x1F DUP10 AND DUP3 PUSH2 0x15EB JUMP JUMPDEST DUP4 SSTORE POP JUMPDEST PUSH1 0x1 PUSH1 0x2 DUP9 MUL ADD DUP9 SSTORE POP POP POP JUMPDEST POP POP POP POP POP POP JUMP JUMPDEST PUSH1 0x0 PUSH1 0x40 DUP3 ADD SWAP1 POP PUSH2 0x170C PUSH1 0x0 DUP4 ADD DUP6 PUSH2 0xD4C JUMP JUMPDEST PUSH2 0x1719 PUSH1 0x20 DUP4 ADD DUP5 PUSH2 0xD4C JUMP JUMPDEST SWAP4 SWAP3 POP POP POP JUMP INVALID LOG2 PUSH5 0x6970667358 0x22 SLT KECCAK256 0x4A SWAP12 0xD5 0xAE 0xD9 0xE3 AND PUSH1 0x82 0xD3 0xE4 PUSH16 0x708E9177445BF2625B6CE63DC774CEDE INVALID SWAP14 DUP7 RETURNDATACOPY PUSH5 0x736F6C6343 STOP ADDMOD SGT STOP CALLER "},"methodIdentifiers":{"createSurvey(string,uint256,uint256)":"d6b41d8c","didVote(address,uint256)":"bda088d4","getVote(uint256)":"5a55c1f0","join()":"b688a363","members(address)":"08ae4b0c","vote(uint256,uint256)":"b384abef"}}}}}