{
  "_format": "hh-sol-artifact-1",
  "contractName": "Polling",
  "sourceName": "contracts/Poll.sol",
  "abi": [
    {
      "anonymous": false,
      "inputs": [
        {
          "indexed": true,
          "internalType": "address",
          "name": "owner",
          "type": "address"
        },
        {
          "indexed": true,
          "internalType": "uint256",
          "name": "pollId",
          "type": "uint256"
        },
        {
          "indexed": false,
          "internalType": "uint256",
          "name": "createdAt",
          "type": "uint256"
        },
        {
          "indexed": false,
          "internalType": "uint256",
          "name": "endTime",
          "type": "uint256"
        }
      ],
      "name": "PollCreated",
      "type": "event"
    },
    {
      "anonymous": false,
      "inputs": [
        {
          "indexed": true,
          "internalType": "address",
          "name": "voted",
          "type": "address"
        },
        {
          "indexed": true,
          "internalType": "uint256",
          "name": "pollId",
          "type": "uint256"
        },
        {
          "indexed": true,
          "internalType": "uint256",
          "name": "voteIndex",
          "type": "uint256"
        },
        {
          "indexed": false,
          "internalType": "uint256",
          "name": "votedAt",
          "type": "uint256"
        }
      ],
      "name": "Voted",
      "type": "event"
    },
    {
      "inputs": [
        {
          "internalType": "string[]",
          "name": "options",
          "type": "string[]"
        },
        {
          "internalType": "string",
          "name": "question",
          "type": "string"
        },
        {
          "internalType": "uint256",
          "name": "endTime",
          "type": "uint256"
        },
        {
          "internalType": "uint256",
          "name": "number_of_options",
          "type": "uint256"
        }
      ],
      "name": "createPoll",
      "outputs": [],
      "stateMutability": "nonpayable",
      "type": "function"
    },
    {
      "inputs": [
        {
          "internalType": "uint256",
          "name": "pollId",
          "type": "uint256"
        }
      ],
      "name": "didVote",
      "outputs": [
        {
          "internalType": "bool",
          "name": "",
          "type": "bool"
        }
      ],
      "stateMutability": "view",
      "type": "function"
    },
    {
      "inputs": [
        {
          "internalType": "uint256",
          "name": "pollId",
          "type": "uint256"
        }
      ],
      "name": "getPoll",
      "outputs": [
        {
          "internalType": "address",
          "name": "",
          "type": "address"
        },
        {
          "internalType": "string[]",
          "name": "",
          "type": "string[]"
        },
        {
          "internalType": "uint256[]",
          "name": "",
          "type": "uint256[]"
        },
        {
          "internalType": "uint256",
          "name": "",
          "type": "uint256"
        },
        {
          "internalType": "uint256",
          "name": "",
          "type": "uint256"
        },
        {
          "internalType": "string",
          "name": "",
          "type": "string"
        }
      ],
      "stateMutability": "view",
      "type": "function"
    },
    {
      "inputs": [
        {
          "internalType": "uint256",
          "name": "pollId",
          "type": "uint256"
        },
        {
          "internalType": "uint256",
          "name": "voteIndex",
          "type": "uint256"
        }
      ],
      "name": "vote",
      "outputs": [],
      "stateMutability": "nonpayable",
      "type": "function"
    }
  ],
  "bytecode": "0x608060405234801561001057600080fd5b5061187a806100206000396000f3fe608060405234801561001057600080fd5b506004361061004c5760003560e01c80630da031f6146100515780631a8cbcaa14610081578063b384abef146100b6578063ef31b98b146100d2575b600080fd5b61006b60048036038101906100669190610a64565b6100ee565b6040516100789190610aac565b60405180910390f35b61009b60048036038101906100969190610a64565b610158565b6040516100ad96959493929190610d71565b60405180910390f35b6100d060048036038101906100cb9190610de7565b610484565b005b6100ec60048036038101906100e79190611042565b61078f565b005b60006001600083815260200190815260200160002060020160003373ffffffffffffffffffffffffffffffffffffffff1673ffffffffffffffffffffffffffffffffffffffff16815260200190815260200160002060009054906101000a900460ff169050919050565b600060608060008060606000600160008981526020019081526020016000206003015467ffffffffffffffff81111561019457610193610e2c565b5b6040519080825280602002602001820160405280156101c25781602001602082028036833780820191505090505b50905060005b600160008a81526020019081526020016000206003015481101561027c57600160008a8152602001908152602001600020600501600160008b81526020019081526020016000206004018281548110610224576102236110e1565b5b9060005260206000200160405161023b9190611213565b90815260200160405180910390205482828151811061025d5761025c6110e1565b5b602002602001018181525050808061027490611259565b9150506101c8565b506001600089815260200190815260200160002060000160009054906101000a900473ffffffffffffffffffffffffffffffffffffffff16600160008a815260200190815260200160002060040182600160008c815260200190815260200160002060010154600160008d815260200190815260200160002060070154600160008e815260200190815260200160002060060184805480602002602001604051908101604052809291908181526020016000905b828210156103dc57838290600052602060002001805461034f9061113f565b80601f016020809104026020016040519081016040528092919081815260200182805461037b9061113f565b80156103c85780601f1061039d576101008083540402835291602001916103c8565b820191906000526020600020905b8154815290600101906020018083116103ab57829003601f168201915b505050505081526020019060010190610330565b5050505094508080546103ee9061113f565b80601f016020809104026020016040519081016040528092919081815260200182805461041a9061113f565b80156104675780601f1061043c57610100808354040283529160200191610467565b820191906000526020600020905b81548152906001019060200180831161044a57829003601f168201915b505050505090509650965096509650965096505091939550919395565b818160005482106104ca576040517f08c379a00000000000000000000000000000000000000000000000000000000081526004016104c1906112ed565b60405180910390fd5b600081101580156104f05750600160008381526020019081526020016000206003015481105b61052f576040517f08c379a000000000000000000000000000000000000000000000000000000000815260040161052690611359565b60405180910390fd5b6001600083815260200190815260200160002060020160003373ffffffffffffffffffffffffffffffffffffffff1673ffffffffffffffffffffffffffffffffffffffff16815260200190815260200160002060009054906101000a900460ff16156105d0576040517f08c379a00000000000000000000000000000000000000000000000000000000081526004016105c7906113c5565b60405180910390fd5b6001600083815260200190815260200160002060010154421115610629576040517f08c379a000000000000000000000000000000000000000000000000000000000815260040161062090611431565b60405180910390fd5b60016000858152602001908152602001600020600501600160008681526020019081526020016000206004018481548110610667576106666110e1565b5b9060005260206000200160405161067e9190611213565b9081526020016040518091039020600081548092919061069d90611259565b9190505550600180600086815260200190815260200160002060020160003373ffffffffffffffffffffffffffffffffffffffff1673ffffffffffffffffffffffffffffffffffffffff16815260200190815260200160002060006101000a81548160ff02191690831515021790555060016000858152602001908152602001600020600701600081548092919061073490611259565b919050555082843373ffffffffffffffffffffffffffffffffffffffff167fc32b42768a47a585121e9b8d7a2ab9d3f34c326a192dee11ee1732e3d18313f3426040516107819190611451565b60405180910390a450505050565b600281101580156107a1575060088111155b6107e0576040517f08c379a00000000000000000000000000000000000000000000000000000000081526004016107d7906114de565b60405180910390fd5b428211610822576040517f08c379a00000000000000000000000000000000000000000000000000000000081526004016108199061154a565b60405180910390fd5b60008054905060008081548092919061083a90611259565b9190505550336001600083815260200190815260200160002060000160006101000a81548173ffffffffffffffffffffffffffffffffffffffff021916908373ffffffffffffffffffffffffffffffffffffffff160217905550826001600083815260200190815260200160002060010181905550816001600083815260200190815260200160002060030181905550836001600083815260200190815260200160002060060190816108ed9190611701565b5060005b828110156109c15760016000838152602001908152602001600020600401868281518110610922576109216110e1565b5b602002602001015190806001815401808255809150506001900390600052602060002001600090919091909150908161095b9190611701565b50600060016000848152602001908152602001600020600501878381518110610987576109866110e1565b5b602002602001015160405161099c9190611804565b90815260200160405180910390208190555080806109b990611259565b9150506108f1565b50803373ffffffffffffffffffffffffffffffffffffffff167fda55b7689542ca1d298bca6cc93e5a27380dd122ca062cd7e21edc08097372dc4286604051610a0b92919061181b565b60405180910390a35050505050565b6000604051905090565b600080fd5b600080fd5b6000819050919050565b610a4181610a2e565b8114610a4c57600080fd5b50565b600081359050610a5e81610a38565b92915050565b600060208284031215610a7a57610a79610a24565b5b6000610a8884828501610a4f565b91505092915050565b60008115159050919050565b610aa681610a91565b82525050565b6000602082019050610ac16000830184610a9d565b92915050565b600073ffffffffffffffffffffffffffffffffffffffff82169050919050565b6000610af282610ac7565b9050919050565b610b0281610ae7565b82525050565b600081519050919050565b600082825260208201905092915050565b6000819050602082019050919050565b600081519050919050565b600082825260208201905092915050565b60005b83811015610b6e578082015181840152602081019050610b53565b60008484015250505050565b6000601f19601f8301169050919050565b6000610b9682610b34565b610ba08185610b3f565b9350610bb0818560208601610b50565b610bb981610b7a565b840191505092915050565b6000610bd08383610b8b565b905092915050565b6000602082019050919050565b6000610bf082610b08565b610bfa8185610b13565b935083602082028501610c0c85610b24565b8060005b85811015610c485784840389528151610c298582610bc4565b9450610c3483610bd8565b925060208a01995050600181019050610c10565b50829750879550505050505092915050565b600081519050919050565b600082825260208201905092915050565b6000819050602082019050919050565b610c8f81610a2e565b82525050565b6000610ca18383610c86565b60208301905092915050565b6000602082019050919050565b6000610cc582610c5a565b610ccf8185610c65565b9350610cda83610c76565b8060005b83811015610d0b578151610cf28882610c95565b9750610cfd83610cad565b925050600181019050610cde565b5085935050505092915050565b610d2181610a2e565b82525050565b600082825260208201905092915050565b6000610d4382610b34565b610d4d8185610d27565b9350610d5d818560208601610b50565b610d6681610b7a565b840191505092915050565b600060c082019050610d866000830189610af9565b8181036020830152610d988188610be5565b90508181036040830152610dac8187610cba565b9050610dbb6060830186610d18565b610dc86080830185610d18565b81810360a0830152610dda8184610d38565b9050979650505050505050565b60008060408385031215610dfe57610dfd610a24565b5b6000610e0c85828601610a4f565b9250506020610e1d85828601610a4f565b9150509250929050565b600080fd5b7f4e487b7100000000000000000000000000000000000000000000000000000000600052604160045260246000fd5b610e6482610b7a565b810181811067ffffffffffffffff82111715610e8357610e82610e2c565b5b80604052505050565b6000610e96610a1a565b9050610ea28282610e5b565b919050565b600067ffffffffffffffff821115610ec257610ec1610e2c565b5b602082029050602081019050919050565b600080fd5b600080fd5b600067ffffffffffffffff821115610ef857610ef7610e2c565b5b610f0182610b7a565b9050602081019050919050565b82818337600083830152505050565b6000610f30610f2b84610edd565b610e8c565b905082815260208101848484011115610f4c57610f4b610ed8565b5b610f57848285610f0e565b509392505050565b600082601f830112610f7457610f73610e27565b5b8135610f84848260208601610f1d565b91505092915050565b6000610fa0610f9b84610ea7565b610e8c565b90508083825260208201905060208402830185811115610fc357610fc2610ed3565b5b835b8181101561100a57803567ffffffffffffffff811115610fe857610fe7610e27565b5b808601610ff58982610f5f565b85526020850194505050602081019050610fc5565b5050509392505050565b600082601f83011261102957611028610e27565b5b8135611039848260208601610f8d565b91505092915050565b6000806000806080858703121561105c5761105b610a24565b5b600085013567ffffffffffffffff81111561107a57611079610a29565b5b61108687828801611014565b945050602085013567ffffffffffffffff8111156110a7576110a6610a29565b5b6110b387828801610f5f565b93505060406110c487828801610a4f565b92505060606110d587828801610a4f565b91505092959194509250565b7f4e487b7100000000000000000000000000000000000000000000000000000000600052603260045260246000fd5b7f4e487b7100000000000000000000000000000000000000000000000000000000600052602260045260246000fd5b6000600282049050600182168061115757607f821691505b60208210810361116a57611169611110565b5b50919050565b600081905092915050565b60008190508160005260206000209050919050565b6000815461119d8161113f565b6111a78186611170565b945060018216600081146111c257600181146111d75761120a565b60ff198316865281151582028601935061120a565b6111e08561117b565b60005b83811015611202578154818901526001820191506020810190506111e3565b838801955050505b50505092915050565b600061121f8284611190565b915081905092915050565b7f4e487b7100000000000000000000000000000000000000000000000000000000600052601160045260246000fd5b600061126482610a2e565b91507fffffffffffffffffffffffffffffffffffffffffffffffffffffffffffffffff82036112965761129561122a565b5b600182019050919050565b7f706f6c6c20646f6573206e6f7420657869737400000000000000000000000000600082015250565b60006112d7601383610d27565b91506112e2826112a1565b602082019050919050565b60006020820190508181036000830152611306816112ca565b9050919050565b7f696e76616c696420766f746520696e6465780000000000000000000000000000600082015250565b6000611343601283610d27565b915061134e8261130d565b602082019050919050565b6000602082019050818103600083015261137281611336565b9050919050565b7f796f75206861766520616c726561647920766f74656400000000000000000000600082015250565b60006113af601683610d27565b91506113ba82611379565b602082019050919050565b600060208201905081810360008301526113de816113a2565b9050919050565b7f706f6c6c2068617320656e646564000000000000000000000000000000000000600082015250565b600061141b600e83610d27565b9150611426826113e5565b602082019050919050565b6000602082019050818103600083015261144a8161140e565b9050919050565b60006020820190506114666000830184610d18565b92915050565b7f6e756d626572206f66206f7074696f6e73206d7573742062652062657477656560008201527f6e203220616e6420380000000000000000000000000000000000000000000000602082015250565b60006114c8602983610d27565b91506114d38261146c565b604082019050919050565b600060208201905081810360008301526114f7816114bb565b9050919050565b7f656e642074696d652063616e6e6f7420626520696e2070617374000000000000600082015250565b6000611534601a83610d27565b915061153f826114fe565b602082019050919050565b6000602082019050818103600083015261156381611527565b9050919050565b60006020601f8301049050919050565b600082821b905092915050565b6000600883026115b77fffffffffffffffffffffffffffffffffffffffffffffffffffffffffffffffff8261157a565b6115c1868361157a565b95508019841693508086168417925050509392505050565b6000819050919050565b60006115fe6115f96115f484610a2e565b6115d9565b610a2e565b9050919050565b6000819050919050565b611618836115e3565b61162c61162482611605565b848454611587565b825550505050565b600090565b611641611634565b61164c81848461160f565b505050565b5b8181101561167057611665600082611639565b600181019050611652565b5050565b601f8211156116b5576116868161117b565b61168f8461156a565b8101602085101561169e578190505b6116b26116aa8561156a565b830182611651565b50505b505050565b600082821c905092915050565b60006116d8600019846008026116ba565b1980831691505092915050565b60006116f183836116c7565b9150826002028217905092915050565b61170a82610b34565b67ffffffffffffffff81111561172357611722610e2c565b5b61172d825461113f565b611738828285611674565b600060209050601f83116001811461176b5760008415611759578287015190505b61176385826116e5565b8655506117cb565b601f1984166117798661117b565b60005b828110156117a15784890151825560018201915060208501945060208101905061177c565b868310156117be57848901516117ba601f8916826116c7565b8355505b6001600288020188555050505b505050505050565b60006117de82610b34565b6117e88185611170565b93506117f8818560208601610b50565b80840191505092915050565b600061181082846117d3565b915081905092915050565b60006040820190506118306000830185610d18565b61183d6020830184610d18565b939250505056fea26469706673582212203ed75a7f6e9a6a8c6e71bee21a8cb08bb1e7a35b20c2f6c900f7c44e174d951c64736f6c63430008130033",
  "linkReferences": {},
  "deployedLinkReferences": {}
}