{
  "_format": "hh-sol-artifact-1",
  "contractName": "SurveyContract",
  "sourceName": "contracts/Survey.sol",
  "abi": [
    {
      "anonymous": false,
      "inputs": [
        {
          "indexed": true,
          "internalType": "address",
          "name": "member",
          "type": "address"
        },
        {
          "indexed": false,
          "internalType": "uint256",
          "name": "joinedAt",
          "type": "uint256"
        }
      ],
      "name": "MemberJoined",
      "type": "event"
    },
    {
      "anonymous": false,
      "inputs": [
        {
          "indexed": true,
          "internalType": "address",
          "name": "owner",
          "type": "address"
        },
        {
          "indexed": true,
          "internalType": "uint256",
          "name": "surveyId",
          "type": "uint256"
        },
        {
          "indexed": false,
          "internalType": "uint256",
          "name": "createdAt",
          "type": "uint256"
        },
        {
          "indexed": false,
          "internalType": "uint256",
          "name": "endTime",
          "type": "uint256"
        }
      ],
      "name": "SurveyCreated",
      "type": "event"
    },
    {
      "anonymous": false,
      "inputs": [
        {
          "indexed": true,
          "internalType": "address",
          "name": "voted",
          "type": "address"
        },
        {
          "indexed": true,
          "internalType": "uint256",
          "name": "surveyId",
          "type": "uint256"
        },
        {
          "indexed": true,
          "internalType": "uint256",
          "name": "option",
          "type": "uint256"
        },
        {
          "indexed": false,
          "internalType": "uint256",
          "name": "votedAt",
          "type": "uint256"
        }
      ],
      "name": "Voted",
      "type": "event"
    },
    {
      "inputs": [
        {
          "internalType": "string",
          "name": "uri",
          "type": "string"
        },
        {
          "internalType": "uint256",
          "name": "endTime",
          "type": "uint256"
        },
        {
          "internalType": "uint256",
          "name": "options",
          "type": "uint256"
        }
      ],
      "name": "createSurvey",
      "outputs": [],
      "stateMutability": "nonpayable",
      "type": "function"
    },
    {
      "inputs": [
        {
          "internalType": "address",
          "name": "member",
          "type": "address"
        },
        {
          "internalType": "uint256",
          "name": "surveyId",
          "type": "uint256"
        }
      ],
      "name": "didVote",
      "outputs": [
        {
          "internalType": "bool",
          "name": "",
          "type": "bool"
        }
      ],
      "stateMutability": "view",
      "type": "function"
    },
    {
      "inputs": [
        {
          "internalType": "uint256",
          "name": "surveyId",
          "type": "uint256"
        }
      ],
      "name": "getVote",
      "outputs": [
        {
          "internalType": "string",
          "name": "",
          "type": "string"
        },
        {
          "internalType": "address",
          "name": "",
          "type": "address"
        },
        {
          "internalType": "uint256[]",
          "name": "",
          "type": "uint256[]"
        },
        {
          "internalType": "uint256",
          "name": "",
          "type": "uint256"
        }
      ],
      "stateMutability": "view",
      "type": "function"
    },
    {
      "inputs": [],
      "name": "join",
      "outputs": [],
      "stateMutability": "nonpayable",
      "type": "function"
    },
    {
      "inputs": [
        {
          "internalType": "address",
          "name": "",
          "type": "address"
        }
      ],
      "name": "members",
      "outputs": [
        {
          "internalType": "bool",
          "name": "",
          "type": "bool"
        }
      ],
      "stateMutability": "view",
      "type": "function"
    },
    {
      "inputs": [
        {
          "internalType": "uint256",
          "name": "surveyId",
          "type": "uint256"
        },
        {
          "internalType": "uint256",
          "name": "option",
          "type": "uint256"
        }
      ],
      "name": "vote",
      "outputs": [],
      "stateMutability": "nonpayable",
      "type": "function"
    }
  ],
  "bytecode": "0x608060405234801561001057600080fd5b50611756806100206000396000f3fe608060405234801561001057600080fd5b50600436106100625760003560e01c806308ae4b0c146100675780635a55c1f014610097578063b384abef146100ca578063b688a363146100e6578063bda088d4146100f0578063d6b41d8c14610120575b600080fd5b610081600480360381019061007c9190610b29565b61013c565b60405161008e9190610b71565b60405180910390f35b6100b160048036038101906100ac9190610bc2565b61015c565b6040516100c19493929190610d5b565b60405180910390f35b6100e460048036038101906100df9190610dae565b6102cb565b005b6100ee6105f8565b005b61010a60048036038101906101059190610dee565b61072d565b6040516101179190610b71565b60405180910390f35b61013a60048036038101906101359190610f63565b610798565b005b60026020528060005260406000206000915054906101000a900460ff1681565b6060600060606000600160008681526020019081526020016000206000016001600087815260200190815260200160002060010160009054906101000a900473ffffffffffffffffffffffffffffffffffffffff166001600088815260200190815260200160002060030160016000898152602001908152602001600020600201548380546101ea90611001565b80601f016020809104026020016040519081016040528092919081815260200182805461021690611001565b80156102635780601f1061023857610100808354040283529160200191610263565b820191906000526020600020905b81548152906001019060200180831161024657829003601f168201915b50505050509350818054806020026020016040519081016040528092919081815260200182805480156102b557602002820191906000526020600020905b8154815260200190600101908083116102a1575b5050505050915093509350935093509193509193565b600260003373ffffffffffffffffffffffffffffffffffffffff1673ffffffffffffffffffffffffffffffffffffffff16815260200190815260200160002060009054906101000a900460ff16610357576040517f08c379a000000000000000000000000000000000000000000000000000000000815260040161034e9061107e565b60405180910390fd5b8181600054821061039d576040517f08c379a0000000000000000000000000000000000000000000000000000000008152600401610394906110ea565b60405180910390fd5b600160008381526020019081526020016000206005015481106103f5576040517f08c379a00000000000000000000000000000000000000000000000000000000081526004016103ec90611156565b60405180910390fd5b6001600083815260200190815260200160002060040160003373ffffffffffffffffffffffffffffffffffffffff1673ffffffffffffffffffffffffffffffffffffffff16815260200190815260200160002060009054906101000a900460ff1615610496576040517f08c379a000000000000000000000000000000000000000000000000000000000815260040161048d906111c2565b60405180910390fd5b60016000838152602001908152602001600020600201544211156104ef576040517f08c379a00000000000000000000000000000000000000000000000000000000081526004016104e69061122e565b60405180910390fd5b6001600085815260200190815260200160002060030183815481106105175761051661124e565b5b906000526020600020016000815480929190610532906112ac565b9190505550600180600086815260200190815260200160002060040160003373ffffffffffffffffffffffffffffffffffffffff1673ffffffffffffffffffffffffffffffffffffffff16815260200190815260200160002060006101000a81548160ff02191690831515021790555082843373ffffffffffffffffffffffffffffffffffffffff167fc32b42768a47a585121e9b8d7a2ab9d3f34c326a192dee11ee1732e3d18313f3426040516105ea91906112f4565b60405180910390a450505050565b600260003373ffffffffffffffffffffffffffffffffffffffff1673ffffffffffffffffffffffffffffffffffffffff16815260200190815260200160002060009054906101000a900460ff1615610685576040517f08c379a000000000000000000000000000000000000000000000000000000000815260040161067c9061135b565b60405180910390fd5b6001600260003373ffffffffffffffffffffffffffffffffffffffff1673ffffffffffffffffffffffffffffffffffffffff16815260200190815260200160002060006101000a81548160ff0219169083151502179055503373ffffffffffffffffffffffffffffffffffffffff167f7f3b9effe05cfb4f31f854004de03199fd03fe56bf38a48b2aa9a9f4402d6e234260405161072391906112f4565b60405180910390a2565b60006001600083815260200190815260200160002060040160008473ffffffffffffffffffffffffffffffffffffffff1673ffffffffffffffffffffffffffffffffffffffff16815260200190815260200160002060009054906101000a900460ff16905092915050565b600260003373ffffffffffffffffffffffffffffffffffffffff1673ffffffffffffffffffffffffffffffffffffffff16815260200190815260200160002060009054906101000a900460ff16610824576040517f08c379a000000000000000000000000000000000000000000000000000000000815260040161081b9061107e565b60405180910390fd5b60028110158015610836575060088111155b610875576040517f08c379a000000000000000000000000000000000000000000000000000000000815260040161086c906113ed565b60405180910390fd5b4282116108b7576040517f08c379a00000000000000000000000000000000000000000000000000000000081526004016108ae90611459565b60405180910390fd5b6000805490506000808154809291906108cf906112ac565b9190505550836001600083815260200190815260200160002060000190816108f79190611625565b50826001600083815260200190815260200160002060020181905550816001600083815260200190815260200160002060050181905550336001600083815260200190815260200160002060010160006101000a81548173ffffffffffffffffffffffffffffffffffffffff021916908373ffffffffffffffffffffffffffffffffffffffff1602179055508167ffffffffffffffff81111561099d5761099c610e38565b5b6040519080825280602002602001820160405280156109cb5781602001602082028036833780820191505090505b506001600083815260200190815260200160002060030190805190602001906109f5929190610a4d565b50803373ffffffffffffffffffffffffffffffffffffffff167f7dbdc74dfa202714f01ba5d9f06fafebc553262226547369c54db89d113d36674286604051610a3f9291906116f7565b60405180910390a350505050565b828054828255906000526020600020908101928215610a89579160200282015b82811115610a88578251825591602001919060010190610a6d565b5b509050610a969190610a9a565b5090565b5b80821115610ab3576000816000905550600101610a9b565b5090565b6000604051905090565b600080fd5b600080fd5b600073ffffffffffffffffffffffffffffffffffffffff82169050919050565b6000610af682610acb565b9050919050565b610b0681610aeb565b8114610b1157600080fd5b50565b600081359050610b2381610afd565b92915050565b600060208284031215610b3f57610b3e610ac1565b5b6000610b4d84828501610b14565b91505092915050565b60008115159050919050565b610b6b81610b56565b82525050565b6000602082019050610b866000830184610b62565b92915050565b6000819050919050565b610b9f81610b8c565b8114610baa57600080fd5b50565b600081359050610bbc81610b96565b92915050565b600060208284031215610bd857610bd7610ac1565b5b6000610be684828501610bad565b91505092915050565b600081519050919050565b600082825260208201905092915050565b60005b83811015610c29578082015181840152602081019050610c0e565b60008484015250505050565b6000601f19601f8301169050919050565b6000610c5182610bef565b610c5b8185610bfa565b9350610c6b818560208601610c0b565b610c7481610c35565b840191505092915050565b610c8881610aeb565b82525050565b600081519050919050565b600082825260208201905092915050565b6000819050602082019050919050565b610cc381610b8c565b82525050565b6000610cd58383610cba565b60208301905092915050565b6000602082019050919050565b6000610cf982610c8e565b610d038185610c99565b9350610d0e83610caa565b8060005b83811015610d3f578151610d268882610cc9565b9750610d3183610ce1565b925050600181019050610d12565b5085935050505092915050565b610d5581610b8c565b82525050565b60006080820190508181036000830152610d758187610c46565b9050610d846020830186610c7f565b8181036040830152610d968185610cee565b9050610da56060830184610d4c565b95945050505050565b60008060408385031215610dc557610dc4610ac1565b5b6000610dd385828601610bad565b9250506020610de485828601610bad565b9150509250929050565b60008060408385031215610e0557610e04610ac1565b5b6000610e1385828601610b14565b9250506020610e2485828601610bad565b9150509250929050565b600080fd5b600080fd5b7f4e487b7100000000000000000000000000000000000000000000000000000000600052604160045260246000fd5b610e7082610c35565b810181811067ffffffffffffffff82111715610e8f57610e8e610e38565b5b80604052505050565b6000610ea2610ab7565b9050610eae8282610e67565b919050565b600067ffffffffffffffff821115610ece57610ecd610e38565b5b610ed782610c35565b9050602081019050919050565b82818337600083830152505050565b6000610f06610f0184610eb3565b610e98565b905082815260208101848484011115610f2257610f21610e33565b5b610f2d848285610ee4565b509392505050565b600082601f830112610f4a57610f49610e2e565b5b8135610f5a848260208601610ef3565b91505092915050565b600080600060608486031215610f7c57610f7b610ac1565b5b600084013567ffffffffffffffff811115610f9a57610f99610ac6565b5b610fa686828701610f35565b9350506020610fb786828701610bad565b9250506040610fc886828701610bad565b9150509250925092565b7f4e487b7100000000000000000000000000000000000000000000000000000000600052602260045260246000fd5b6000600282049050600182168061101957607f821691505b60208210810361102c5761102b610fd2565b5b50919050565b7f796f7520617265206e6f742061206d656d626572000000000000000000000000600082015250565b6000611068601483610bfa565b915061107382611032565b602082019050919050565b600060208201905081810360008301526110978161105b565b9050919050565b7f73757276657920646f6573206e6f742065786973740000000000000000000000600082015250565b60006110d4601583610bfa565b91506110df8261109e565b602082019050919050565b60006020820190508181036000830152611103816110c7565b9050919050565b7f696e76616c6964206f7074696f6e000000000000000000000000000000000000600082015250565b6000611140600e83610bfa565b915061114b8261110a565b602082019050919050565b6000602082019050818103600083015261116f81611133565b9050919050565b7f796f75206861766520616c726561647920766f74656400000000000000000000600082015250565b60006111ac601683610bfa565b91506111b782611176565b602082019050919050565b600060208201905081810360008301526111db8161119f565b9050919050565b7f7375727665792068617320656e64656400000000000000000000000000000000600082015250565b6000611218601083610bfa565b9150611223826111e2565b602082019050919050565b600060208201905081810360008301526112478161120b565b9050919050565b7f4e487b7100000000000000000000000000000000000000000000000000000000600052603260045260246000fd5b7f4e487b7100000000000000000000000000000000000000000000000000000000600052601160045260246000fd5b60006112b782610b8c565b91507fffffffffffffffffffffffffffffffffffffffffffffffffffffffffffffffff82036112e9576112e861127d565b5b600182019050919050565b60006020820190506113096000830184610d4c565b92915050565b7f796f752061726520616c72656164792061206d656d6265720000000000000000600082015250565b6000611345601883610bfa565b91506113508261130f565b602082019050919050565b6000602082019050818103600083015261137481611338565b9050919050565b7f6e756d626572206f66206f7074696f6e73206d7573742062652062657477656560008201527f6e203220616e6420380000000000000000000000000000000000000000000000602082015250565b60006113d7602983610bfa565b91506113e28261137b565b604082019050919050565b60006020820190508181036000830152611406816113ca565b9050919050565b7f656e642074696d652063616e6e6f7420626520696e2070617374000000000000600082015250565b6000611443601a83610bfa565b915061144e8261140d565b602082019050919050565b6000602082019050818103600083015261147281611436565b9050919050565b60008190508160005260206000209050919050565b60006020601f8301049050919050565b600082821b905092915050565b6000600883026114db7fffffffffffffffffffffffffffffffffffffffffffffffffffffffffffffffff8261149e565b6114e5868361149e565b95508019841693508086168417925050509392505050565b6000819050919050565b600061152261151d61151884610b8c565b6114fd565b610b8c565b9050919050565b6000819050919050565b61153c83611507565b61155061154882611529565b8484546114ab565b825550505050565b600090565b611565611558565b611570818484611533565b505050565b5b818110156115945761158960008261155d565b600181019050611576565b5050565b601f8211156115d9576115aa81611479565b6115b38461148e565b810160208510156115c2578190505b6115d66115ce8561148e565b830182611575565b50505b505050565b600082821c905092915050565b60006115fc600019846008026115de565b1980831691505092915050565b600061161583836115eb565b9150826002028217905092915050565b61162e82610bef565b67ffffffffffffffff81111561164757611646610e38565b5b6116518254611001565b61165c828285611598565b600060209050601f83116001811461168f576000841561167d578287015190505b6116878582611609565b8655506116ef565b601f19841661169d86611479565b60005b828110156116c5578489015182556001820191506020850194506020810190506116a0565b868310156116e257848901516116de601f8916826115eb565b8355505b6001600288020188555050505b505050505050565b600060408201905061170c6000830185610d4c565b6117196020830184610d4c565b939250505056fea26469706673582212204a9bd5aed9e3166082d3e46f708e9177445bf2625b6ce63dc774cedefe9d863e64736f6c63430008130033",
  "linkReferences": {},
  "deployedLinkReferences": {}
}